:020000040800F2
:1000000040190020450100085B180008531800083B
:1000100057180008990F0008F91F00080000000099
:10002000000000000000000000000000C91A0008E5
:100030007D10000800000000E1180008B51B000852
:100040005F0100085F0100085F0100085F01000810
:100050005F0100085F0100085F0100085F01000800
:100060005F0100085F0100085F0100085F010008F0
:100070005F0100085F0100085F0100085F010008E0
:100080005F0100085F0100085F0100085F010008D0
:100090005F0100085F0100085F0100085F010008C0
:1000A0005F0100085F0100085F0100085F010008B0
:1000B0005F0100085F0100085F0100085F010008A0
:1000C0005F0100085F0100085F0100085F01000890
:1000D0005F0100085F0100085F010008191C0008AB
:1000E0005F0100085F0100085F0100085F01000870
:1000F0005F0100085F0100085F0100085F01000860
:100100005F0100085F0100085F0100085F0100084F
:100110005F0100085F0100085F0100085F0100083F
:100120005F0100085F0100085F0100085F0100082F
:10013000DFF80CD000F036FD00480047612E0008C3
:10014000401900200648804706480047FEE7FEE7C2
:10015000FEE7FEE7FEE7FEE7FEE7FEE7FEE7FEE777
:10016000B91B00083101000840EA01039B0703D0D6
:1001700009E008C9121F08C0042AFAD203E011F8E6
:10018000013B00F8013B521EF9D27047D2B201E0A8
:1001900000F8012B491EFBD270470022F6E710B58C
:1001A00013460A4604461946FFF7F0FF204610BDE5
:1001B00030B505462A460B4612F8010B13F8014BE1
:1001C00008B1A042F8D01CB1002802D06D1CF1E7A4
:1001D000284630BD421C10F8011B0029FBD1801AB3
:1001E0007047034611F8012B00F8012B002AF9D1C2
:1001F000184670470FB400B58DB010A909900B9048
:1002000000914FF0FF300A9000200C9005480690B6
:10021000054807906A4609A80F9900F089FB0DB0C0
:100220005DF814FB4D0900086B0900082DE9FF4F2C
:10023000087881B09946FF2805D0491C2D2804D0A4
:100240000024002308E000230BE00124F9E703EB7E
:10025000830300EB4303491C0878FF28F7D104B15E
:100260005B4200200090147801462D2C01D02B2CED
:1002700004D1521C2D2C12D0002400940025167895
:10028000FF2E0ED00A24A0FB04C801FB0481002726
:1002900000FB0711521C16EB0C006941EFE701242B
:1002A000EBE7994450EA01020ED00024AA4D2646FD
:1002B000DFF8A88200F036FC82468B46B9F10000D8
:1002C00009DAC9F100071BE001980021C0E900111B
:1002D00005B0BDE8F08F074612E0F80707D02246C8
:1002E0002B463046414600F0E4F906468846224651
:1002F0002B461046194600F0DCF904460D467F10E7
:10030000002FEAD1B9F1000F324643465046594614
:1003100002DA00F098FB01E000F0CBF9009A0AB194
:1003200081F00041019AC2E90001D1E72DE9FF4FB8
:100330001F468DB0D7E901464FF0FF382E204546C5
:100340004FF000090B90B9696D1C0E988847396A07
:10035000824688470028F6D1BAF1FF3F0AD024F43C
:10036000D064002E11DDBAF12B0F08D0BAF12D0F99
:100370000BD102E0404611B0ABE744F48064B969A8
:100380006D1C0E9888478246761E6946600501D529
:100390002D2000E02B208DF8000001F1010B0DF164
:1003A000200809E0B9696D1C0E98884782460F98AD
:1003B00044F40074761E0560002E02DDBAF1300FA1
:1003C000F0D00B998A453ED144F0800406E00F99A5
:1003D000681CA9F1010944F400740860B9696D1C36
:1003E000761E0E98884782463028F0D02BE00B9975
:1003F0008A4505D1200603D444F08004761E18E017
:10040000504601F047FF08B30DF11301761E44F486
:1004100000748B4508D2AAF130000BF8010B2006BE
:1004200007D5A9F1010003E0200602D409F101007B
:100430008146A00502D50F99681C0860B9696D1C3A
:100440000E9888478246002ED1DC53E0002E51DD05
:10045000BAF1650F02D0BAF1450F4BD1A00549D5CD
:10046000B9696D1C24F44074761E0E988847824644
:10047000002E0CDD2B2804D0BAF12D0F07D144F447
:100480008074B9696D1C0E9888478246761EE00517
:1004900001D52D2100E02B2108F8011BCDF82C807F
:1004A00021E00DF12901761E44F4007488450CD238
:1004B000AAF1300010F0FF0088F8000002D10B997B
:1004C000884509D908F1010806E0E00501D524486E
:1004D00001E042F20F708146B9696D1C0E988847A1
:1004E00082460F980560002E04DD504601F0D2FED2
:1004F0000028D6D1F9690E988847FF208BF80000B4
:1005000088F800000020069007904B466A4608A92C
:1005100006A8FFF78BFEA00502D46FF001002AE7C2
:1005200014F0240F0AD0E00714D1DDE90612386870
:10053000031D3B600068C0E900120BE0DDE9060125
:1005400000F014FB0146E00704D13868021D3A6050
:100550000068016028460EE7000024400000F03FDC
:10056000F1D8FFFF2DE9FE4F804681EA0300C00F5E
:100570000C46009021F0004123F00045B8EB02004A
:10058000A94105D24046214690461C460B460246EC
:1005900023F00040104347D0270DC7F30A00C3F3F0
:1005A0000A510290401A019040286BDAC3F31300FD
:1005B00040F4801B0098924620B10023D2EB030A3E
:1005C00063EB0B0B01985946C0F14002504600F016
:1005D00078F906460D4650465946019A00F090F9C2
:1005E00010EB08006141002487EA115284EAE773A6
:1005F0001A4340D0009A62B3019A012A4FEA075287
:1006000015DC001B61EB02014FF0004202EA0752C9
:10061000CDE90042001C41F5801132462B4600F026
:10062000C4F903B0BDE8F08F40462146F9E7001B4E
:1006300061EB0201001C41F5801300185B4120189A
:10064000A2F5001747EB030140EAD570B6196D41DA
:1006500011E06D084FEA360645EAC0754FEA0752C9
:10066000001B61EB0201001C41F5801149084FEAB3
:1006700030000019514132462B4603B0BDE8F04F1F
:1006800000F084B90098012240000023D0EB020260
:1006900063EBE073009821464FEAE074B8EB00008A
:1006A00061EB0401E9E783F000435BE781F000417F
:1006B00058E72DE9FE4F81EA030404F0004421F0DD
:1006C000004100944FF0000B23F0004350EA010476
:1006D0005ED052EA03045BD0C3F30A54C1F30A5557
:1006E0002C44A4F2F3340194A0FB0254C1F313018F
:1006F00041F48011C3F3130343F4801301FB02445C
:1007000000FB034E840A970A44EA815447EA835760
:10071000A4FB076802958D0A05FB07854FEA932C19
:1007200004FB0C542705029D4FEA065847EA16378A
:10073000B5EB08056EEB070C870E920E47EA8117A2
:1007400042EA8312A7FB0201B6EB0B0164EB000443
:100750002B0D43EA0C335E1844EB1C50DA4651462D
:10076000E7FB0201C5F313044FEA0B3343EA1453CA
:100770004FEA0432019C43EA0603A4F10C040294FC
:10078000009CCDE900B400F010F903B0BDE8F08F93
:1007900000200146F9E770B5C1F30A5201F00045A7
:1007A0000024C1F3130140F2FF3341F480119A4257
:1007B00001DA002070BD40F233439A42A2F2334284
:1007C00003DC524200F08CF800E090402C43F1D062
:1007D000404270BD30B5041E71F1000404DB4FF0DF
:1007E0000044404264EB0101141E73F1000405DB78
:1007F0001C464FF00043524263EB04038B4208BF98
:10080000824230BD30B5041E71F1000404DB4FF0AC
:100810000044404264EB0101141E73F1000405DB47
:100820001C464FF00043524263EB0403994208BF59
:10083000904230BD30B50B460146002020220124F5
:1008400009E021FA02F59D4205D303FA02F5491B9E
:1008500004FA02F52844151EA2F10102F1DC30BDB4
:100860002DE9F05F0546002092469B4688460646E5
:10087000814640241BE0284641464746224600F078
:100880002FF853465A46C01A914110D311461846C4
:10089000224600F016F82D1A67EB01084F46224653
:1008A0000120002100F00DF817EB00094E41201E39
:1008B000A4F10104DFDC484631462A464346BDE840
:1008C000F09F202A04DB203A00FA02F10020704752
:1008D0009140C2F1200320FA03F31943904070477E
:1008E000202A04DB203A21FA02F00021704721FA85
:1008F00002F3D040C2F120029140084319467047EC
:10090000202A06DBCB17203A41FA02F043EAE073D3
:1009100006E041FA02F3D040C2F1200291400843C0
:1009200019467047026811441378016018467047F1
:10093000D1600449516104491162002111611146DD
:1009400000F048B925090008C90B0008426842B107
:10095000016811F8013B23B1521EC0E9001218468C
:1009600070470121C160881E704742685AB1C36850
:10097000016843B983688B4205D0491E521CC0E907
:100980000012002070474FF0FF30704710B5141E62
:1009900073F1000408DA401C41F1000192185B4138
:1009A0001A4301D120F0010010BD2DE9F04D92460F
:1009B0009B4611B1B1FA81F202E0B0FA80F2203226
:1009C0009046FFF77EFF04460F4640EA0A0041EAE0
:1009D0000B0153465A46084313D0114653EA01000F
:1009E00019D0C8F140025046FFF77AFF05460E467F
:1009F000504659464246FFF764FF084305D00120A0
:100A000004E020463946BDE8F08D0020054346EA63
:100A1000E0762C4337430A986305E40AA0EB08000C
:100A20000022FD0A44EA47540A3002D5002001465C
:100A3000E9E7010510196941DDE908450019694137
:100A4000BDE8F04DA2E72DE9F04D81EA030404F082
:100A5000004B21F0004514464FF0000A23F00041FE
:100A600050EA050220D054EA01021DD0C5F30A570E
:100A70000246C5F31303C1F31300C1F30A5640F451
:100A8000801543F48013A7EB0608101BD64608F226
:100A9000FD3873EB050002D308F1010801E092185C
:100AA0005B41B8F1000F03DA00200146BDE8F08D8C
:100AB00000204FF48011064684460EE0171B73EBAE
:100AC000050705D3121B63EB050306434CEA010C33
:100AD00049084FEA300092185B4150EA0107EDD116
:100AE00052EA030012D082EA040083EA05010843B7
:100AF00005D0101BAB4106D20122002306E00022E4
:100B00004FF0004302E06FF0010253101AEB0600B1
:100B10004CEB085110EB0A0041EB0B01BDE8F04D26
:100B2000FFF734BF0EB540F2334202920022CDE906
:100B300000221346FFF739FF03B000BDC1F30A528C
:100B4000C1F3130140F2FF3341F480119A4202DAFB
:100B500000200146704740F233439A42A2F23342EA
:100B600002DC5242FFF7BCBEFFF7ABBE01F0004310
:100B700030B421F0004150EA010206D00A0DA2F57E
:100B80006072C1F31301002A02DC30BC0020704700
:100B9000440F44EAC104C100E01830BC00EBC2506D
:100BA00000F0AEB9064C074D06E0E06840F00103E6
:100BB00094E8070098471034AC42F6D3FFF7BCFA2C
:100BC00098360008B8360008C0B24FF4F05100F073
:100BD000CFB900002DE9F34F8BB04FF0000801F1C1
:100BE0000C000C464FF0010B46460DF1080A01902F
:100BF0006269012101989047051E2DD0252D2CD02A
:100C0000216A8847C0B16269012101989047216A31
:100C100088470028F7D1411E62690198904700E09B
:100C2000761CA1690B988847216A88470028F7D16C
:100C3000E1690B988847DBE7A1690B98884707466D
:100C4000A84201D1761CD3E7E1690B9888477F1C45
:100C500002D1B8F1000F6FD046E1002762693D462E
:100C60003946019890472A2804D1626901210198E8
:100C700090470125DFF8849262690121019890472D
:100C8000A0F130010A290AD24F45E5DC07EB8701C4
:100C900000EB4107303FDFD445F01005ECE7E906F3
:100CA00001D46FF000476C280AD04C2814D0682873
:100CB00015D06A280DD074281CD07A281AD01DE0CF
:100CC00062690121019890476C2802D045F0040523
:100CD00014E045F002050DE045F020050AE06269E8
:100CE000012101989047682802D045F0080505E0E9
:100CF00045F400656269012101989047C4E90157F4
:100D000065283DD019DC58287AD00CDC452837D02E
:100D100004DC252826D0412831D131E046282FD0C7
:100D200047282CD12CE05B2877D0612828D0632875
:100D30007CD0642823D15AE0D0E06F2848D008DC6A
:100D400066281DD067281BD0692821D06E2816D1AF
:100D500027E0702845D0732868D0752847D07828B8
:100D60000DD14DE0A1690B988847054625283FF431
:100D700069AFE1690B9888476D1C3FF46AAFB3E037
:100D800023466A466FF001000B99FFF7CFFA9EE009
:100D900045F040006060A80723464FF0000236D4BB
:100DA0003EE0E8077FF447AF2068011D216000683E
:100DB000290501D506701BE7290701D5068017E72D
:100DC000A90703D5F117C0E9006111E706600FE735
:100DD00045F040006060A80723464FF0080216D493
:100DE0001EE040F60E0125EA0100606016E045F0C5
:100DF00040006060A80723464FF00A0207D40FE0C6
:100E000045F040006060A80708D5234610226FF027
:100E100001000B99AFF3008059E007E02346102250
:100E20006FF001000B99AFF3008050E04FF0000924
:100E30004F464B46632802D05B2806D040E0E806C8
:100E400001D40120A06001273AE0626901210198E4
:100E500090475E2805D14FF0010962694946019823
:100E60009047216939B900210A46534643F82120A9
:100E7000491C0829FADBB0B3216969B9C11700EB35
:100E8000D16253110AEB830122F01F02821A012062
:100E90000B68904003430B60626901210198904701
:100EA0005D28E8D1B9F1000F09D00020514651F872
:100EB0002020D24341F82020401C0828F7DB02AB59
:100EC000224600976FF001000B99AFF300800028D5
:100ED0000CDA401C08D1BBF1000F05D04FF0FF30F9
:100EE0000DB0BDE8F08FFFE74046F9E7E90701D113
:100EF00008F1010806444FF0000B79E6CCCCCC0C8D
:100F00000029A8BF7047401C490008BF20F001001D
:100F1000704710B4B0FA80FC00FA0CF050EA0104FB
:100F200004BF10BC704749B1CCF1200421FA04F48D
:100F300011FA0CF118BF012121430843A3EB0C0166
:100F4000CB1D4FEA00614FEA102042BF002010BCC9
:100F5000704700EBC35010440029A4BF10BC704779
:100F6000401C490008BF20F0010010BC7047000081
:100F70007F2801D9002208E0064A02EB5002C00790
:100F8000127800D1120902F00F02012090400840AF
:100F9000704700008235000800BFFEE72DE9F041F0
:100FA00000270024002500264FF480712948FFF710
:100FB000F4F801F0BBFD074601F07AFD0446224635
:100FC00025A1384601F064FD01F0B0FD0546294633
:100FD000204601F055FD0020214901F075FD8046B5
:100FE000424620A1284601F053FD00201E4901F091
:100FF0006BFD804642461DA1284601F049FD0020B8
:101000001B4901F061FD804642461AA1284601F0C5
:101010003FFD01F08BFD05462946204601F030FDDD
:101020000020014601F050FD8046424612A12846AC
:1010300001F02EFD384601F0BFFD06463146054859
:10104000FFF7CFF8304600F0FDFF384601F07AFD9B
:10105000BDE8F0813A040020646174610000000082
:101060000000434054656D000000494048756D0024
:1010700000805140696C6C004C4544007047000092
:1010800010B5002410210C4800F0E1FB4FF47A70F9
:1010900001F0D8FD0CE04FF4FA73002207A108A07C
:1010A00000F010F800B110BD00F02AFA601CC4B2C4
:1010B0000A2CF0DB00BFF6E7000801404F4B0000B0
:1010C000415400002DE9F04106460C4615461F46E6
:1010D0002548B0F800046FF30E002349A1F800047E
:1010E000324622A1234800F0C4FE1CB915B90120E4
:1010F000BDE8F081384601F0A5FD00201A49B1F89D
:101100000014C1F30E01184A505411461AA000F001
:1011100075FFB4B1ADB121461348FFF749F808B1E6
:10112000012000E0002040B929460F48FFF740F8B1
:1011300008B1012000E0002008B10120D8E700201C
:10114000D6E744B121460848FFF732F808B101203C
:10115000CEE70020CCE729460348FFF729F808B17D
:101160000120C5E70020C3E73800002025730D0AE1
:1011700000000000004800402573000010B514A0D6
:1011800000F03CFF4FF40041184800F060FBFFF70F
:1011900077FF002000F078F900BF15A118A000F03B
:1011A000F3F80028F9D0002000F04AF800BF05232A
:1011B00017A219A1002000F007F90028F7D000BFFE
:1011C00000F092FA0028FBD017A000F017FF10BD26
:1011D0000D0AD5FDD4DAC5E4D6C3204553503832C4
:1011E0003636202E2E2E2E2E2E0D0A0000080140FF
:1011F0006C696D75746F6E674071712E636F6D00F1
:1012000054656E64615F413232414330000000003A
:10121000333030310000000034372E3131352E317B
:1012200031392E30000000000D0AC5E4D6C3204538
:1012300053503832363620CDEAB1CF0D0A000000C7
:1012400010B586B004460CB1012000E00020024633
:1012500006A101A800F0E2FE4FF4FA73002207A1F4
:1012600001A8FFF72FFF06B010BD000041542B432B
:1012700049504D55583D2564000000004F4B00007B
:1012800010B54FF47A7001F0DDFC04A1044800F0C1
:10129000F0FD4FF4FA7001F0D5FC10BD2B2B2B00A4
:1012A0000048004008B50121042000F02BFB4FF45A
:1012B0000040ADF8000010208DF8030003208DF8E9
:1012C00002006946074800F035FA0121042000F0C9
:1012D00019FB1020ADF800006946024800F02AFA18
:1012E00008BD00000008014010B54FF4FA73002259
:1012F0000DA10EA0FFF7E6FEA0B110A11248FEF767
:1013000057FF08B1022010BD10A10F48FEF750FF93
:1013100008B10320F7E710A10B48FEF749FF08B119
:101320000420F0E70020EEE74F4B000041542B4330
:1013300049505354415455530000000053544154F4
:1013400055533A320D0A00003800002053544154DE
:1013500055533A330D0A00005354415455533A340F
:101360000D0A000010B5FFF79DFF00F05BF910219A
:10137000044800F06CFA4FF40041024800F065FAAE
:1013800010BD00000008014030B59FB004460D4676
:101390002B46224606A101A800F040FE41F2883308
:1013A000002208A101A8FFF78DFE1FB030BD00008C
:1013B00041542B43574A41503D222573222C22256C
:1013C000732200004F4B0000F0B5B9B006460F463F
:1013D00014461D46642120A8FEF7DFFE16B1012E3B
:1013E00010D107E03B4614A214A120A8009400F0FD
:1013F00015FE08E03B4615A210A120A8009400F0BD
:101400000DFE00E000BF00BF052D06DA20AB2A4626
:101410000FA102A800F002FE04E020AA11A102A878
:1014200000F0FCFD4FF47A6312A216A102A8FFF7A8
:1014300049FE39B0F0BD000054435000222573220C
:101440002C222573222C25730000000055445000E7
:1014500041542B43495053544152543D25642C254B
:101460007300000041542B43495053544152543DA2
:1014700025730000414C5245415920434F4E4E4583
:10148000435400004F4B000010B5044624B1012C1A
:101490000AD0022C18D10FE040F6C4130BA20EA103
:1014A0000EA0FFF70FFE10BD40F6C41307A20AA15D
:1014B0000DA0FFF707FEF6E740F6C41303A206A14E
:1014C0000CA0FFF7FFFDEEE70020ECE76E6F206356
:1014D00068616E67650000004F4B000041542B436C
:1014E000574D4F44453D310041542B43574D4F44D8
:1014F000453D320041542B43574D4F44453D330049
:1015000010B51021054800F0A0F94FF4FA7001F071
:1015100099FB1021014800F09AF910BD0008014024
:101520002DE9F04186B007460C4615461E464FF0A1
:1015300000083FB1224614A1144800F09AFC4FF075
:1015400001081CE0052E06DAAB1C324610A101A8EA
:1015500000F064FD04E0AA1C12A101A800F05EFDE9
:101560004FF47A73002213A101A8FFF7ABFD4FF4EB
:101570007A73002210A12046FFF7A4FD8046404662
:1015800006B0BDE8F081000025730000004800406F
:1015900041542B43495053454E443D25642C25640A
:1015A0000000000041542B43495053454E443D2513
:1015B000640000003E20000053454E44204F4B0085
:1015C000C0B04FF480716846FEF7E7FDFFF7D6FD27
:1015D0001AE0FFF7E3FC0D48FEF7FCFD04460B4B59
:1015E00022460B49684600F019FD05230022694692
:1015F0000120FFF795FF4FF47A7001F023FB05A05F
:1016000000F0FCFC00F0F8F9E3E700003A040020E9
:10161000C4350008B7A2CBCD504F5354B3C9B9A6B7
:10162000210D0A0000B585B00121880400F05AF9A7
:101630000121082000F066F94FF48060ADF8100039
:1016400018208DF8130003208DF8120004A91A4801
:1016500000F070F84FF40060ADF8100004208DF831
:10166000130004A9144800F065F84FF4E13000902D
:101670000020ADF80400ADF80600ADF80800ADF8A4
:101680000C000C20ADF80A0069460C4800F07CFB09
:10169000012240F22551094800F051FB012240F29D
:1016A0002441064800F04BFB00F00AF801210348F2
:1016B00000F002FB05B000BD000C014000480040F6
:1016C00008B54FF4A06000F001F927208DF8000064
:1016D00000208DF801008DF8020001208DF8030034
:1016E000684600F0BBF808BD10B54FF4FA7300224D
:1016F00007A108A0FFF7E6FC08B9002010BD4FF4D1
:10170000FA7308A202A108A0FFF7DCFCF6E70000CC
:101710004F4B000041542B4349504D4F44453D3100
:10172000000000003E00000041542B434950534547
:101730004E4400002DE9F04102460025002600201D
:1017400000230024002791F803C00CF00F0591F846
:1017500003C00CF0100CBCF1000F03D091F802C0D4
:101760004CEA050591F800C0BCF1000F31D01468B7
:1017700000202BE04FF0010C0CFA00F3B1F800C090
:101780000CEA03069E4220D183004FF00F0C0CFAA6
:1017900003F7BC4305FA03FC4CEA040491F803C0C8
:1017A000BCF1280F06D14FF0010C0CFA00FCC2F876
:1017B00014C00AE091F803C0BCF1480F05D14FF006
:1017C000010C0CFA00FCC2F810C0401C0828D1D350
:1017D0001460B1F800C0BCF1FF0F34DD5468002084
:1017E0002EE000F1080C4FF0010808FA0CF3B1F8F4
:1017F00000C00CEA03069E4221D183004FF00F0C7B
:101800000CFA03F7BC4305FA03FC4CEA040491F814
:1018100003C0BCF1280F05D100F1080C08FA0CF840
:10182000C2F8148091F803C0BCF1480F07D100F151
:10183000080C4FF0010808FA0CF8C2F81080401CA0
:101840000828CED35460BDE8F08141617047016142
:10185000704700BFFEE700BFFEE7704770B500218C
:1018600000230F22C47804B3154C246804F4E06408
:10187000C4F5E064210AC1F10403CA40447804FAC3
:1018800003F184781440214309010E4C0678A155D8
:10189000047804F01F050124AC4005786D11AD00FB
:1018A00005F1E025C5F8004109E0047804F01F05C2
:1018B0000124AC40044D0678761145F8264070BDF1
:1018C0000CED00E000E400E080E100E002490143AB
:1018D000024A1160704700000000FA050CED00E0BC
:1018E0007047000029B1064AD2690243044BDA610D
:1018F00004E0034AD2698243014BDA617047000079
:101900000010024029B1064A92690243044B9A61D1
:1019100004E0034A92698243014B9A6170470000D8
:101920000010024030B500210022002400232D4D7C
:101930006D6805F00C0121B1042905D0082923D1D7
:1019400005E0294D056022E0274D05601FE0254D8B
:101950006D6805F47012234D6D6805F4803402251E
:1019600005EB92421CB9214D554305600BE01D4D1E
:101970006D6805F400351DB11C4D5543056002E04E
:10198000194D5543056002E0174D056000BF00BFCB
:10199000144D6D6805F0F0010909154D6B5C056883
:1019A000DD4045600F4D6D6805F4E061090A104D9A
:1019B0006B5C4568DD4085600A4D6D6805F46051DB
:1019C000C90A0B4D6B5C4568DD40C560054D6D680F
:1019D00005F44041890B074D6B5CC568B5FBF3F519
:1019E000056130BD0010024000127A0000093D0080
:1019F000180000202800002010B5154800780028A5
:101A000024D0FFF73DFC00BFFFF76EFC0446002C1E
:101A1000FAD0042C15D10FA000F0F0FA00BF15A1E8
:101A200018A0FFF7B1FC0028F9D000BF052319A2C8
:101A30001AA10020FFF7C8FC0028F7D01BA000F077
:101A4000DDFA00BFFFF750FE0028FBD010BD0000FC
:101A5000000000200D0AD5FDD4DAD6D8C1ACC8C824
:101A6000B5E3BACDB7FECEF1C6F7202E2E2E2E2E20
:101A70002E0D0A006C696D75746F6E674071712E62
:101A8000636F6D0054656E64615F41323241433073
:101A900000000000333030310000000034372E31B8
:101AA00031352E3131392E30000000000D0AD6D8E4
:101AB000C1ACC8C8B5E3BACDB7FECEF1C6F7B3C95D
:101AC000B9A60D0A00000000704710B500F002F83A
:101AD00010BD00000CB50020019000903348006854
:101AE00040F480303149086000BF3048006800F49D
:101AF000003000900198401C0190009818B901989E
:101B0000B0F5A06FF1D12948006800F4003010B1A1
:101B10000120009001E0002000900098012843D1AE
:101B20002348006840F0100021490860084600681A
:101B300020F0030008600846006840F002000860DA
:101B40001A48406819494860084640684860084695
:101B5000406840F4806048600846406820F47C108B
:101B600048600846406840F4E8104860084600684D
:101B700040F08070086000BF0C48006800F0007002
:101B80000028F9D00948406820F003000749486060
:101B90000846406840F00200486000BF03484068C3
:101BA00000F00C000828F9D10CBD00000010024024
:101BB000002002407047000010B51348006840F054
:101BC00001001149086008464068104908400E4964
:101BD0004860084600680E4908400B4908600846FE
:101BE000006820F4802008600846406820F4FE0069
:101BF00048604FF41F008860FFF767FF4FF00060F8
:101C00000449086010BD0000001002400000FFF809
:101C1000FFFFF6FE08ED00E010B540F22551204828
:101C200000F063F8D8B11E4800F01AF9C4B21D489C
:101C3000B0F80004C0F30E0040F2FF3188420EDA23
:101C40001849B1F80014C1F30E00411C154AB2F84E
:101C5000002461F30E021349A1F800240C5440F251
:101C600024410F4800F041F8012817D10D48B0F881
:101C7000000420F4004000F500400A49A1F80004E7
:101C8000074800F0EDF8C4B207A10648FEF790FA45
:101C900008B1012000E000200649087010BD0000D6
:101CA0000048004038000020434C4F5345440D0A83
:101CB000000000000000002021B1828942F400529F
:101CC000828104E082894DF6FF731A408281704759
:101CD00002460020B1F5007F00D100BF13880B4001
:101CE0000BB1012000E00020704770B502460024CF
:101CF00000230025002040F66A16B14200D100BF43
:101D0000C1F3421501F01F03012606FA03F3012D6A
:101D100002D19689334006E0022D02D1168A334063
:101D200001E0968A33400C12012606FA04F4168864
:101D3000344013B10CB1012000E0002070BDF0B5BB
:101D40000346002400260025002040F66A17B94209
:101D500000D100BF1846C1F3421401F01F0601274D
:101D600007FA06F5012C01D10C3004E0022C01D158
:101D7000103000E014301AB107682F43076002E00A
:101D80000768AF430760F0BD2DE9F04786B0054610
:101D90000E460024A24600BFA1460027B08900B12C
:101DA00000BF2F462C8A4CF6FF700440F088044395
:101DB0002C82AC894EF6F3100440B0883189084378
:101DC000718908430443AC81AC8A4FF6FF4004405C
:101DD000B0890443AC8201A8FFF7A4FD1F488742E5
:101DE00002D1DDF810A001E0DDF80CA0A88900F414
:101DF000004040B10AEBCA0000EB0A10316849000C
:101E0000B0FBF1F807E00AEBCA0000EB0A103168FA
:101E10008900B0FBF1F86420B8FBF0F00401200960
:101E2000642101FB1089A88900F4004040B13220F0
:101E300000EBC900B0FBF1F000F00700044308E03C
:101E4000322000EB09106421B0FBF1F000F00F002C
:101E500004432C8106B0BDE8F08700000038014043
:101E600001468888C0F308007047C1F308028280E9
:101E700070470FB470B586B006460CA8019073E0A9
:101E80000B9800785C281CD10B98401C0B900078B4
:101E90006E2809D072280FD10D213046FFF7E5FFDB
:101EA0000B98401C0B900BE00A213046FFF7DDFF3A
:101EB0000B98401C0B9003E00B98401C0B9000BF4C
:101EC0004BE00B980078252840D10B98401C0B90D4
:101ED0000078642818D0732833D1019810C8019075
:101EE0000BE021783046FFF7C0FF00BF802130466D
:101EF000FFF7EEFE0028F9D0641C20780028F0D10E
:101F00000B98401C0B9020E0019820C801900A22F9
:101F100002A9284600F04CFF02AC0BE021783046C5
:101F2000FFF7A3FF00BF80213046FFF7D1FE002856
:101F3000F9D0641C20780028F0D10B98401C0B903D
:101F400003E00B98401C0B9000BF06E00B9810F8C4
:101F5000011B0B903046FFF788FF00BF8021304601
:101F6000FFF7B6FE0028F9D00B980078002887D13B
:101F700006B070BC5DF814FB00B585B00121880384
:101F8000FFF7C0FC01210420FFF7BCFC4FF40070F8
:101F9000ADF8100018208DF8130003208DF8120002
:101FA00004A91348FFF7C6FB4FF48060ADF810009A
:101FB00004208DF8130004A90D48FFF7BBFB4FF474
:101FC000E13000900020ADF80400ADF80600ADF857
:101FD0000800ADF80C000C20ADF80A006946054871
:101FE000FFF7D2FE01210348FFF766FE05B000BDF2
:101FF000000801400038014000BFFEE70FB4054B68
:1020000010B503A9044A029800F04CF910BC5DF821
:1020100014FB0000392D00082C0000200FB4084BE1
:1020200010B504A902AA039800F03CF9044602A9DD
:10203000002000F0CEFC204610BC5DF814FB000030
:10204000D329000830B528B1144C031F00202168A3
:102050000A4605E0084630BD9A4203D81046526849
:10206000002AF9D1002800D041680BD00468A3EB06
:102070000005A54204D11B681C440346046002E02D
:10208000436000E023603AB11C68D51AA54203D131
:1020900015682C441C6052685A6030BD3000002026
:1020A0002DE9F04782460F4C10480D4E0E4F001B95
:1020B0004FF0000820F007054FF0010900221146FB
:1020C000504600F04DFE002802D1306810B10020CB
:1020D000BDE8F0873C60C4E90058C6F80090EDE721
:1020E000340000204405002030000020401500206E
:1020F00002E008C8121F08C1002AFAD170477047D1
:10210000002001E001C1121F002AFBD1704700002E
:102110002DE9FF5F82B00021DDE90430020DDDF81A
:1021200040B0034318D044F61050A2F2FF324243AD
:102130001514119801281FD0A5EB0B00401C5FEA75
:10214000000A4FF000064E4FDFF83891B046504677
:1021500015D5CAF1000413E0119801244AA30128FF
:1021600001D16FEA0B010298119AC0E90031C0E970
:10217000024206B0BDE8F09FCBF10000DFE7044665
:102180000021404A491842EB0450CDE9001012E00A
:10219000E00707D032463B4640464946FEF789FAFB
:1021A0008046894632463B4610461946FEF781FA7C
:1021B00006460F466410002CEAD1DDE90401DDE992
:1021C0000023BAF1000F06DAFEF773FA42464B46D7
:1021D000FEF76FFA05E0FEF736FC42464B46FEF787
:1021E00032FC04460E460022284BFEF70BFB03D8B8
:1021F0004FF0FF30014607E00022254B20463146D4
:10220000FEF7B0F9FEF79AFC102409E0002C0ADB77
:102210000A220023FEF724FB039B30321A55641E6A
:1022200050EA0102F2D1641C039AC4F11103144470
:10223000119A012A03D0012208430DD10AE0084374
:1022400004D000204FF0110B119072E7A3EB0B05A7
:102250006D1E0DE05B4504DD4FF0000205F1010548
:1022600004E003DA4FF00002A5F10105002AECD0EA
:1022700002981199C0E90231C0E9004579E70000F0
:10228000000014400000F03F300000000000F04368
:102290000000E03F30380A2801D2012070470020BA
:1022A000704700002DE9FF4F95B09B4689460646D2
:1022B00000250FE2252877D100242746F84A01217E
:1022C000059400E0044316F8013F203B01FA03F0B7
:1022D0001042F7D130782A2811D06FF02F033078D0
:1022E000A0F13002092A16D8059A44F0020402EB44
:1022F000820203EB42021044761C0590EFE759F886
:10230000042B0592002A03DA504244F4005405904D
:1023100044F00204761C30782E2816D116F8010FEE
:1023200044F004042A280DD06FF02F023078A0F179
:102330003003092B09D807EB870302EB4303C718C7
:10234000761CF3E759F8047B761C30786C280FD0A4
:1023500006DC4C2817D068280DD06A2814D104E078
:10236000742810D07A280FD10DE044F400140AE04C
:1023700044F4801401E044F440147278824202D1A3
:1023800004F58014761C761C307866280BD013DC9C
:10239000582877D009DC002875D04528F6D0462883
:1023A000F4D047281AD19DE118E0632835D064287D
:1023B00079D0652812D195E1702873D008DC6728A0
:1023C000F1D069286FD06E280DD06F2806D1B5E006
:1023D00073282CD0752875D0782874D05A46179950
:1023E00090476D1C75E1C4F30250022809D0032800
:1023F0000DD0D9F8001004280DD00D6009F10409A2
:1024000067E1D9F80010EA17C1E90052F6E7D9F8F8
:1024100000100D80F2E70D70F0E719F8041B8DF83D
:10242000001000208DF80100EA46012003E059F871
:1024300004AB4FF0FF3061074FF0000102D40DE014
:1024400008F101018846B9420FDA8045F8DB1AF835
:1024500008100029F4D108E008F101018846814202
:10246000FADB1AF808100029F6D105985B46A0EBB4
:10247000080721463846179A00F094FA284400EBE2
:10248000080507E04DE029E10DE01AF8010B5A4676
:1024900017999047B8F10108F7D25B4621463846B4
:1024A000179A13E142E00A220092C4F302524FF05D
:1024B000000A022A08D059F804CB032A4FEAEC712B
:1024C0000AD00DE029E02AE009F1070121F0070216
:1024D000F2E802C1914609E00FFA8CFC4FEAEC7178
:1024E000042A03D14FFA8CFC4FEAEC71002907DA79
:1024F0000A460021DCF1000C61EB02012D2202E012
:10250000220504D52B228DF80420012203E0E207E6
:1025100001D02022F7E7904659E00A2102E010227C
:102520000DE010214FF0000A00910BE010224FF057
:10253000000A44F004040827009203E008224FF048
:10254000000A0092C4F30252022A05D059F804CBC3
:102550000021032A08D009E009F1070121F0070250
:10256000F2E802C1914605E01FFA8CFC042A01D171
:102570000CF0FF0C4FF00008220728D5702806D079
:10258000009B83F0100353EA0A0305D00EE04022BB
:102590008DF80420012208E05CEA010206D0302216
:1025A0008DF804208DF8050002229046009B83F0F0
:1025B000080353EA0A030AD15CEA010201D1620767
:1025C00005D530228DF804204FF001087F1E5828D1
:1025D00004D034A003900EA802900DE036A0F9E7D5
:1025E00053466046009AFEF73BF984460398825CA6
:1025F0000298401E029002705CEA0100F0D102983D
:1026000006A9081A00F1200A600702D524F48034D4
:1026100000E00127574502DDA7EB0A0000E000209B
:1026200000EB0A01009005984144401A0590E00330
:1026300006D45B462146179A059800F0B3F9054485
:10264000002706E001A85A46C05D179990476D1C07
:102650007F1C4745F6DBE0030CD55B462146179A05
:10266000059800F09FF9054404E030205A46179978
:1026700090476D1C0099481E00900029F5DC08E089
:10268000029802995A460078491C0291179990477E
:102690006D1CBAF10001AAF1010AF1DC65E100004C
:1026A0000928010030313233343536373839616228
:1026B00063646566000000003031323334353637EC
:1026C00038394142434445460000000000F058F9C3
:1026D0000544761C307800287FF4ECAD19B028460C
:1026E000BDE8F08F620700D4062709F1070222F047
:1026F000070CFCE80223E14603F000485FEA080CFF
:1027000002D00FF2702C0DE05FEA045C02D50FF2EC
:10271000682C07E05FEAC47C02D00FF2602C01E075
:10272000AFF2700C4FF0FF3823F00043CDF850C0EB
:1027300065280CD006DC452809D046281DD047283E
:102740003DD13DE0662818D067287ED138E00021D1
:10275000112F01DB112000E0781CCDE9000106A952
:102760000EA8FFF7D5FCDDE90F010E9A03910021B9
:10277000009207F1010A04914DE04FF000400097EC
:10278000CDE9011006A90EA8FFF7C2FCDDE90F0292
:1027900003920E9B11990022DDF80CA00093049285
:1027A00011B9791C00EB010AB7EB0A0004D4C0F19F
:1027B000FF3007F1010A0490AAEB0700019044E002
:1027C000012F00DA01270021112F01DD112000E087
:1027D0003846CDE9000106A90EA8FFF799FCDDE90E
:1027E0000F010E9A0391002104910092BA4621072D
:1027F0000CD40399514500DA8A46BAF1010F05DD80
:10280000009AAAF10101515C302908D0B84202DADD
:1028100010F1040F06DA0121CDE9011015E0AAF14B
:102820000101E9E7002805DC049901440491AAEBC1
:10283000000102E0411C514500DD8A460499401A1E
:10284000401C01904FF000400290200704D40198F2
:10285000504501DBCDF8048000208DF84F00029830
:102860000DF14F07B0F1004F25D02B200E900298AC
:102870004FF0020800280CDA404202902D200E9002
:1028800007E00A210298FDF7D5FF3031029007F8E2
:10289000011DB8F10001A8F10108F2DC029800283E
:1028A000EFD1791E0E980870307800F0200040F0CB
:1028B000450007F8020D12A8C01B00F10708149884
:1028C000007800B1012000EB0A01019801EBE071F2
:1028D00005984144401A401E0590E00306D45B462B
:1028E0002146179A059800F05DF805441498007881
:1028F00018B15A46179990476D1CE00324D55B46E2
:102900002146179A059800F04DF805441CE00498FC
:10291000002807DBDDE90301884203DD0098405C05
:10292000179901E0179930205A469047049805F10D
:102930000105401C04900198401E019004D12E20F6
:102940005A46179990476D1CBAF10001AAF1010A85
:10295000DDDC05E017F8010B5A46179990476D1C0E
:10296000B8F10001A8F10108F4DC5B462146179A92
:102970000598ABE62D0000002B00000020000000B1
:102980002DE9F041044600251E461746880404D46C
:1029900005E039462020B0476D1C641EF9D5284655
:1029A000BDE8F0812DE9F041044600251E46904621
:1029B000C80301D5302700E02027880404D505E0AE
:1029C00041463846B0476D1C641EF9D52846BDE81F
:1029D000F0810A68531C0B601070704770B5044694
:1029E0000E46002506B10CB9002070BDA5680DB9D2
:1029F000A66008E000E02D6828680028FBD1314679
:102A0000284600F0A9FD0120EFE72DE9F047074631
:102A10000D4614461E46DDF820904FF00008C246D1
:102A20000FB105B114B90020BDE8F087B9F1000F6E
:102A300007D0284600F0E6F88046E06840F4007AC7
:102A40000CE03146284600F0C1F88046B8F1000F8E
:102A500001D10020E8E7E06820F4007AA08900F4C2
:102A6000007020B9206A10B1206A71688847C4F8E4
:102A70002080C4F80CA021463846FFF7AFFFD3E70B
:102A800070B504460D4629462046FFF7A7FF70BDE6
:102A9000F8B504460D4616460020044B324629463A
:102AA00000902046FFF7B1FFF8BD00000C000020A9
:102AB00010B5044800F072F804460CB12020E06024
:102AC000204610BD0C00002070B505460E46134888
:102AD00000F064F80446F4B10820E060C4E906564A
:102AE0000F4A104B28463146FDF78CFE03D86FF095
:102AF000004060610FE000220B4B28463146FDF795
:102B000069FE03D84FF00040606104E0284631467A
:102B1000FDF741FE6061204670BD00000C00002002
:102B20000000C0FFFFFFDF410000E0C110B5044816
:102B300000F034F804460CB14020E060204610BD9F
:102B40000C00002070B50446002522E02568A0890D
:102B500000F4807020B9A06810B1A068FFF7F2FF00
:102B6000A08900F4807028B9206918B10A4A206948
:102B700051688847A08900F4007028B9206A18B10C
:102B8000054A206A516888470348416820468847BB
:102B90002C46002CDAD170BD0C00002070B5044624
:102BA00028202168884705461DB128212846FDF7C1
:102BB000F4FA284670BD000010B50446024A01210F
:102BC000204600F063F910BD0C0000202DE9F04113
:102BD00004460D460026002714B90020BDE8F08108
:102BE0002046FDF7F7FA461C304629688847074615
:102BF0000FB90020F2E7324621463846FDF7B4FA15
:102C00003846EBE7704700002DE9F04704460D46D3
:102C100016461F4632463B4620462946FDF743FDF1
:102C200021F000418046054A054BFDF7D3FD02D84F
:102C30000120BDE8F0870020FBE70000BC89D897A1
:102C4000B2D29C3C014642F228324A434FF0E02384
:102C50005A6101221A6100229A6100BF4FF0E022FE
:102C6000106900F001021AB100F48032002AF5D098
:102C700000224FF0E0231A619A6170472DE9F0417C
:102C800004460D46002600270CB1206810B900202C
:102C9000BDE8F081606828B1D4E90110884201D311
:102CA0000020F5E7B5F1004F01D30020F0E7A06860
:102CB000401C05446068A84203D3A168206808440A
:102CC000E6E7206908B10020E2E7B5F1804F07D3BD
:102CD000B5F1004F02D26FF0004702E00020D7E7C5
:102CE0006F00206A60B13946226A20689047064624
:102CF000E6B9E16920688847002060602060C7E786
:102D00003846A1698847064636B9E1692068884790
:102D1000002060602060BBE72EB1A068421C3046F6
:102D20002168FDF721FAE16920688847676026601D
:102D3000A0683044ACE7000070B504460D46E1B22F
:102D40000548FFF792F800BF80210348FEF7C0FF57
:102D50000028F9D0204670BD003801402E20704771
:102D60002DE9F0410B3020F00706104D19E02068E6
:102D7000B04215D3B0420AD9871B201DD4F8048075
:102D8000FDF7F2F9A019C0E90078286004E0606856
:102D90002860201DFDF7E8F9201D2660BDE8F081C0
:102DA000251D2C68002CE2D10020F7E73000002020
:102DB000F0B503460D461646002729460A2E03D0D5
:102DC000002008702846F0BD33B9302001F8010B0F
:102DD000002008702846F6E7002B03DA2D2001F8C2
:102DE000010B5B4242F210720DE093FBF2F404B966
:102DF00037B104F1300001F8010B04FB1233012755
:102E00000A2092FBF0F2002AEFDC0020087028462E
:102E1000D9E7000008B5FEF7CFFE01214420FEF7F8
:102E200071FD28208DF803000120ADF8000003207B
:102E30008DF8020069460848FEF77CFC48208DF8B2
:102E400003001C20ADF8000003208DF80200694645
:102E50000248FEF76FFC08BD000801400018014061
:102E6000FFF7D8FFFFF788F8FEF77CFA03A0FFF71B
:102E7000C5F8FEF7A5FB00BFFEE700000D0A4553AD
:102E80005038323636B2E2CAD40D0A00F0B589B0F5
:102E900007460E461446002524216846FDF77DF9B5
:102EA0004FF480702168884700904FF48070019043
:102EB000059694E8070006AB07C3009800B933E015
:102EC0006946384600F090FA00B92DE0684600F0F7
:102ED00046FBA06850B1029B591C0098A26890471D
:102EE000054605B920E0002000901AE0029A501C27
:102EF00021688847054605B916E0DDE90130401C28
:102F0000834201D2019801E00298401C0246284603
:102F10000099FDF729F9002002996854009861682A
:102F20008847284609B0F0BD009810B10098616844
:102F3000884715B12846616888470020F2E72DE9E7
:102F4000F04107460C460025A846BE6814B900208B
:102F5000BDE8F08101212046FFF790FE05460DB93E
:102F60000020F5E75B202870A068401CA060E068A6
:102F7000401CE06028E02146304600F035FA08B9F0
:102F80000020E5E7204600F0EAFA3068D8B1606931
:102F900008B1022000E00120804608F1010120462E
:102FA000FFF76CFE05460DB90020D1E72C2005F88F
:102FB000010B606910B1202005F8010B002028707A
:102FC000A0684044A0603668002ED4D1022120467B
:102FD000FFF754FE05460DB90020B9E75D2005F85E
:102FE000010B00202870E068401EE0600120AFE780
:102FF0002DE9F04F8BB082460D464FF00009DAE91B
:103000000678002600241C2104A8FDF7C6F8FFF767
:10301000A5FE834600200290039015B90BB0BDE8D1
:10302000F08F0022134638464146FDF742FB00224E
:103030001346CDE90001FDF7CDFB05D025A104A87D
:10304000FEF7ECFF06461BE03A46434623A104A8E0
:10305000FEF7E4FF064602AA22A104A8FDF7CAF87B
:10306000012806D13A464346DDE90201FFF7CCFDCF
:1030700030B93A4643461CA104A8FEF7CFFF0646E6
:10308000002E01DB192E01DD0020C7E7711C284648
:10309000FFF7F4FD8146B9F1000F01D10020BDE733
:1030A00000240DE004A8005D584503D12E2009F846
:1030B000040004E004A8005D09F8040000BF641CDB
:1030C000B442EFD3002009F80400A8683044A86097
:1030D0000120A3E76E756C6C0000000025312E31D5
:1030E00035670000256C670025312E3137670000F9
:1030F0002DE9F04781460C4600250026D9F80870D6
:1031000014B90020BDE8F087606908B1022000E032
:1031100001200646711C2046FFF7B0FD05460DB99B
:103120000020EFE77B2005F8010BE068401CE06021
:10313000606910B10A2005F8010BA0683044A06056
:1031400069E06069B8B12046E168FFF797FD054680
:103150000DB90020D6E74FF0000804E0092005F87B
:10316000010B08F10108E0684045F7D8D4E90201F5
:103170000844A06000BF2146386A00F07BF808B917
:103180000020BFE7204600F0EAF9606908B102209C
:1031900000E00120064631462046FFF76FFD054658
:1031A0000DB90020AEE73A2005F8010B606910B1B7
:1031B000092005F8010BA0683044A060214638467C
:1031C00000F012F908B900209CE7204600F0C7F98A
:1031D000606908B1012000E00020396809B10121CF
:1031E00000E000214618711C2046FFF747FD054608
:1031F0000DB9002086E7386810B12C2005F8010BC6
:10320000606910B10A2005F8010B00202870A06841
:103210003044A0603F68002F93D1606910B1E0682E
:10322000401C00E0022001462046FFF727FD05462E
:103230000DB9002066E7606950B1002003E0092164
:1032400005F8011B401CE168491E8142F7D800BF08
:103250007D2005F8010B00202870E068401EE0602A
:1032600001204FE770B504460D462946206900F05D
:1032700001F870BD2DE9F04707468A460024002674
:103280000025A046A146BAF1000F02D10020BDE8FA
:10329000F0876FB903215046FFF7F0FC06460EB9E0
:1032A0000020F4E74DA13046FCF79BFF0120EEE73C
:1032B0003C4622E020780C2811D006DC08280DD0EE
:1032C00009280FD00A2810D10AE00D2809D0222899
:1032D00002D05C2809D100E000BF00BF00BF00BFE2
:1032E00000BF00BF09F1010905E02078202801DABC
:1032F00009F1050900BF00BF641C20780028D9D15E
:10330000E01B00EB090808F103015046FFF7B6FC8B
:1033100006460EB90020BAE7B9F1000F0FD12220FE
:10332000307042463946701CFCF71EFF222108F11E
:10333000010031540021401C31540120A7E7222014
:103340003070751C3C463DE020781F2808DD207851
:10335000222805D020785C2802D0207828702FE021
:103360005C2005F8010B20780C2815D006DC082815
:103370000FD0092819D00A281AD110E00D2811D031
:10338000222803D05C2813D1287018E0222028704E
:1033900015E06220287012E0662028700FE06E2091
:1033A00028700CE07220287009E07420287006E074
:1033B00022780BA12846FEF731FE2D1D00BF00BF6D
:1033C000641C6D1C20780028BED1222108F1010068
:1033D00031540021401C3154012058E722220000C2
:1033E00075253034780000002DE9F04104460E4682
:1033F000002504B116B90020BDE8F081207B10281B
:1034000057D008DC01281BD0022827D0042809D077
:1034100008285DD130E0202850D0402853D08028A3
:1034200056D12EE005213046FFF728FC05460DB9A0
:103430000020E1E727A12846FCF7D3FE0120DBE7C7
:1034400006213046FFF71AFC05460DB90020D3E7E8
:1034500022A12846FCF7C5FE0120CDE70521304614
:10346000FFF70CFC05460DB90020C5E71DA1284655
:10347000FCF7B7FE0120BFE731462046FFF7B8FD55
:10348000BAE70027206908B90020B5E72069FCF7F2
:10349000A1FE471C39463046FFF7F0FB05460DB943
:1034A0000020A9E73A4628462169FCF75DFE012085
:1034B000A2E731462046FFF7D5FE9DE7314620467C
:1034C000FFF73DFD98E731462046FFF711FE93E7F1
:1034D000002091E76E756C6C0000000066616C73F3
:1034E0006500000074727565000000002DE9F0476A
:1034F00004008A4616D054F8047CD4F800903E1F8D
:10350000564500D956462046FEF79CFD054688469E
:10351000324621465046FFF723FC40B1C0F80090E8
:10352000BDE8F087BDE8F0470846FEF7B9BD44E9BD
:10353000017955B129686A18211F8A4202D9611B95
:10354000091F2960C5F80480EAE7024AC2F8008032
:10355000E6E700003000002001604860704770B569
:10356000044600250CB1206800B970BDA168206830
:1035700045182846FCF72EFEA1680844A06000BF4D
:10358000F3E7DDDDDDDDDCBBBBDDDDDDDDDDDDDD90
:10359000DDDD988888888888888877777777778846
:1035A0008888855555566666666666666666666888
:1035B0008888833333322222222222222222222886
:1035C000888D0000504F535420687474703A2F2F28
:1035D00034372E3131352E3131392E303A333030C7
:1035E000312F696E6465782020485454502F312E55
:1035F000310D0A4163636570743A206170706C69C3
:10360000636174696F6E2F6A736F6E2C20746578B6
:10361000742F6A6176617363726970742C202A2F2B
:103620002A3B20713D302E30310D0A436F6E746598
:103630006E742D4C656E6774683A2025640D0A48D7
:103640006F73743A2034372E3131352E3131392EA3
:10365000303A333030310D0A436F6E74656E742D1D
:10366000547970653A206170706C69636174696F38
:103670006E2F6A736F6E0D0A436F6E6E65637469A9
:103680006F6E3A206B6565702D616C6976650D0A09
:103690000D0A257300000000B83600080000002065
:1036A00038000000F0200008F03600083800002044
:1036B00008190000002100080000000000000000C0
:1036C00000000000A120000845200008ED3400089B
:1036D00000000000010203040102030406070809B8
:1036E00002040608000000000000000000000000C6
:0400000508000131BD
:00000001FF
