:020000040800F2
:100000001804002001010008E90200086D02000840
:10001000E502000849010008290900080000000065
:10002000000000000000000000000000350600088D
:100030004D010008000000003F05000821070008EE
:100040001B0100081B0100081B0100081B01000820
:100050001B0100081B0100081B0100081B01000810
:100060001B0100081B0100081B0100081B01000800
:100070001B0100081B0100081B0100081B010008F0
:100080001B0100081B0100081B0100081B010008E0
:100090001B0100081B0100081B0100081B010008D0
:1000A0001B0100081B0100081B0100081B010008C0
:1000B0001B0100081B0100081B0100081B010008B0
:1000C0001B0100081B0100081B0100081B010008A0
:1000D0001B0100081B0100081B0100081B01000890
:1000E0001B0100081B0100081B010008DFF80CD0F1
:1000F00000F018F8004800478D0A00081804002096
:100100000648804706480047FEE7FEE7FEE7FEE7B1
:10011000FEE7FEE7FEE7FEE7FEE7FEE7250700084D
:10012000ED000008064C074D06E0E06840F00103D2
:1001300094E8070098471034AC42F6D3FFF7DAFF93
:10014000AC130008CC13000800BFFEE770472DE990
:10015000F04102460025002600200023002400274D
:1001600091F803C00CF00F0591F803C00CF0100CCF
:10017000BCF1000F03D091F802C04CEA050591F8DC
:1001800000C0BCF1000F31D0146800202BE04FF00C
:10019000010C0CFA00F3B1F800C00CEA03069E4211
:1001A00020D183004FF00F0C0CFA03F7BC4305FA83
:1001B00003FC4CEA040491F803C0BCF1280F06D1FB
:1001C0004FF0010C0CFA00FCC2F814C00AE091F8E0
:1001D00003C0BCF1480F05D14FF0010C0CFA00FC34
:1001E000C2F810C0401C0828D1D31460B1F800C078
:1001F000BCF1FF0F34DD546800202EE000F1080C44
:100200004FF0010808FA0CF3B1F800C00CEA03063D
:100210009E4221D183004FF00F0C0CFA03F7BC4330
:1002200005FA03FC4CEA040491F803C0BCF1280F62
:1002300005D100F1080C08FA0CF8C2F8148091F806
:1002400003C0BCF1480F07D100F1080C4FF00108C2
:1002500008FA0CF8C2F81080401C0828CED354606D
:10026000BDE8F081416170470161704700BFFEE762
:1002700010B54FF400510948FFF7F6FF4FF4004165
:100280000648FFF7F1FF4FF400410448FFF7EAFF8B
:100290004FF400510148FFF7E5FF10BD000C01408D
:1002A00010B54FF400510748FFF7DEFF4FF400414F
:1002B0000448FFF7D7FF4FF400410248FFF7D4FF8F
:1002C00010BD0000000C014010B54FF4005104486F
:1002D000FFF7CAFF4FF400510148FFF7C3FF10BDFD
:1002E000000C014000BFFEE7704770B5002418E025
:1002F00004F1B000002100F016F90021084600F0DA
:1003000012F90021102000F00EF9002505E001216E
:10031000002000F008F9681CC5B2802DF7DB601CD6
:10032000C4B2082CE4DB70BD08B50121082000F040
:1003300007F94FF42040ADF8000010208DF80300BD
:1003400003208DF8020069463448FFF700FF4FF4A0
:1003500020413248FFF788FF642000F069FB00214C
:10036000AE2000F0E0F80021402000F0DCF8002191
:10037000B02000F0D8F80021C82000F0D4F8002107
:10038000812000F0D0F80021FF2000F0CCF80021FF
:10039000A12000F0C8F80021A62000F0C4F8002138
:1003A000A82000F0C0F800211F2000F0BCF80021B8
:1003B000D32000F0B8F80021084600F0B4F800217E
:1003C000D52000F0B0F80021F02000F0ACF80021BA
:1003D000D92000F0A8F80021222000F0A4F8002184
:1003E000DA2000F0A0F80021022000F09CF80021A3
:1003F000DB2000F098F80021492000F094F800215B
:100400008D2000F090F80021142000F08CF80021DD
:10041000AF2000F088F8FFF768FF08BD000C01402E
:1004200070B504460D4605F1B000002100F07BF8E0
:10043000102141EA1410002100F075F804F00F00BB
:10044000002100F070F870BD2DE9F04707460E4618
:100450009046994600250024A8F12000C5B27F2FC0
:1004600002DD0027B01CC6B2B9F1100F24D131460D
:100470003846FFF7D5FF002408E004EB0511194AC0
:10048000505C012100F04FF8601CC4B2082CF4DB72
:10049000701CC1B23846FFF7C3FF002409E004EB2B
:1004A000051108310F4A505C012100F03CF8601C36
:1004B000C4B2082CF3DB12E031463846FFF7B0FF38
:1004C00000240AE005EB4501074A02EB4101085D03
:1004D000012100F028F8601CC4B2062CF2DBBDE854
:1004E000F08700003C0D0008140B00082DE9F041D6
:1004F00004460F461546984600260FE0AA5D43467F
:1005000039462046FFF7A0FF04F10800C4B2782C5A
:1005100002DD0024B81CC7B2701CC6B2A85D00285A
:10052000ECD1BDE8F08170B504460D461DB1E0B2D6
:1005300000F040FA02E0E0B200F026FA70BD704729
:1005400029B1064A92690243044B9A6104E0034AC6
:1005500092698243014B9A6170470000001002408B
:1005600030B500210022002400232D4D6D6805F0D8
:100570000C0121B1042905D0082923D105E0294D1A
:10058000056022E0274D05601FE0254D6D6805F4EC
:100590007012234D6D6805F48034022505EB9242FC
:1005A0001CB9214D554305600BE01D4D6D6805F4E8
:1005B00000351DB11C4D5543056002E0194D5543F2
:1005C000056002E0174D056000BF00BF144D6D6867
:1005D00005F0F0010909154D6B5C0568DD404560CB
:1005E0000F4D6D6805F4E061090A104D6B5C4568BC
:1005F000DD4085600A4D6D6805F46051C90A0B4DF8
:100600006B5C4568DD40C560054D6D6805F4404193
:10061000890B074D6B5CC568B5FBF3F5056130BD13
:100620000010024000127A0000093D000000002086
:1006300010000020704710B500F002F810BD000057
:100640000CB50020019000903348006840F48030E1
:100650003149086000BF3048006800F40030009065
:100660000198401C0190009818B90198B0F5A06F4E
:10067000F1D12948006800F4003010B10120009049
:1006800001E0002000900098012843D12348006831
:1006900040F01000214908600846006820F003007F
:1006A00008600846006840F0020008601A48406888
:1006B000194948600846406848600846406840F468
:1006C000806048600846406820F47C104860084616
:1006D000406840F4E81048600846006840F08070C8
:1006E000086000BF0C48006800F000700028F9D0D6
:1006F0000948406820F00300074948600846406800
:1007000040F00200486000BF0348406800F00C0061
:100710000828F9D10CBD0000001002400020024062
:100720007047000010B51348006840F001001149FF
:10073000086008464068104908400E49486008466D
:1007400000680E4908400B4908600846006820F41C
:10075000802008600846406820F4FE0048604FF49E
:100760001F008860FFF767FF4FF0006004490860D2
:1007700010BD0000001002400000FFF8FFFFF6FE71
:1007800008ED00E001F40072B2F5007F00D100BF77
:10079000CA430280704721B1828942F400528281AB
:1007A00004E082894DF6FF731A4082817047024649
:1007B0000020B1F5007F00D100BF13880B400BB1C2
:1007C000012000E0002070472DE9F04786B0054683
:1007D0000E460024A24600BFA1460027B08900B102
:1007E00000BF2F462C8A4CF6FF700440F08804436B
:1007F0002C82AC894EF6F3100440B088318908434E
:10080000718908430443AC81AC8A4FF6FF40044031
:10081000B0890443AC8201A8FFF7A2FE1F488742BB
:1008200002D1DDF810A001E0DDF80CA0A88900F4E9
:10083000004040B10AEBCA0000EB0A1031684900E1
:10084000B0FBF1F807E00AEBCA0000EB0A103168D0
:100850008900B0FBF1F86420B8FBF0F00401200936
:10086000642101FB1089A88900F4004040B13220C6
:1008700000EBC900B0FBF1F000F00700044308E012
:10088000322000EB09106421B0FBF1F000F00F0002
:1008900004432C8106B0BDE8F08700000038014019
:1008A00010B586B00446012144F20400FFF748FE6B
:1008B00018208DF817004FF40070ADF814000320D5
:1008C0008DF8160005A91448FFF741FC04208DF8A7
:1008D00017000002ADF8140005A90F48FFF737FC18
:1008E00001940020ADF810000C20ADF80E0000209F
:1008F000ADF80C00ADF80A00ADF8080001A90748F2
:10090000FFF762FF01210548FFF745FF402103483B
:10091000FFF738FF06B010BD000801400038014065
:10092000C1F308028280704700BFFEE72DE9F04165
:1009300005462C464FF400511248FFF793FC002661
:100940001CE0274607F08007802F04D139020D48AC
:10095000FFF78AFC04E04FF400410A48FFF782FCED
:100960006006040E4FF400510648FFF77DFC4FF47B
:1009700000510448FFF776FC701CC6B2082EE0DB7D
:10098000BDE8F081000C014010B50446FFF770FC93
:100990007820FFF7CBFFFFF797FC0020FFF7C6FF9B
:1009A000FFF792FC2046FFF7C1FFFFF78DFCFFF732
:1009B00077FC10BD10B50446FFF75AFC7820FFF70E
:1009C000B5FFFFF781FC4020FFF7B0FFFFF77CFC8D
:1009D0002046FFF7ABFFFFF777FCFFF761FC10BD88
:1009E000014A024900F013B8690A00081400002007
:1009F00002E008C8121F08C1002AFAD170477047E8
:100A0000002001E001C1121F002AFBD170472DE92F
:100A1000F04116460F460446002503E03946B0472C
:100A2000641C6D1C20780028F8D12846BDE8F081B0
:100A3000014642F228324A434FF0E0235A61012234
:100A40001A6100229A6100BF4FF0E022106900F0A5
:100A500001021AB100F48032002AF5D000224FF0D2
:100A6000E0231A619A61704770B504460D46E1B201
:100A70000548FFF755FF00BF80210348FFF797FEA9
:100A80000028F9D0204670BD003801404FF4E13015
:100A9000FFF706FFFFF748FCFFF727FC10A0FFF762
:100AA0009FFF1BE0082313A200210846FFF71EFD4D
:100AB000082312A201210020FFF718FD082311A22C
:100AC00002210020FFF712FD082310A203210020BD
:100AD000FFF70CFD4FF47A70FFF7AAFFE2E7000082
:100AE0004F4C454420496E6974206973204F4B2157
:100AF0000D0A000054656D3A0000000048756D3A1B
:100B000000000000504D322E353A00004861726DF1
:100B10003A0000000000000000000000002F00006C
:100B200000000700070000147F147F1400242A7FB0
:100B30002A1200626408132300364955225000002F
:100B40000503000000001C224100000041221C009F
:100B50000014083E08140008083E0808000000A021
:100B6000600000080808080800006060000000201D
:100B700010080402003E5149453E0000427F4000FB
:100B8000004261514946002141454B310018141281
:100B90007F10002745454539003C4A49493000014E
:100BA0007109050300364949493600064949291E9D
:100BB00000003636000000005636000000081422FF
:100BC00041000014141414140000412214080002FF
:100BD0000151090600324959513E007C1211127C24
:100BE000007F49494936003E41414122007F414151
:100BF000221C007F49494941007F09090901003E43
:100C00004149497A007F0808087F0000417F410080
:100C1000002040413F01007F08142241007F4040F6
:100C20004040007F020C027F007F0408107F003EDE
:100C30004141413E007F09090906003E4151215EC4
:100C4000007F091929460046494949310001017FC1
:100C50000101003F4040403F001F2040201F003F57
:100C60004038403F00631408146300070870080709
:100C700000615149454300007F41410000552A551C
:100C80002A55000041417F00000402010204004097
:100C900040404040000001020400002054545478B9
:100CA000007F4844443800384444442000384444D9
:100CB000487F00385454541800087E090102001877
:100CC000A4A4A47C007F080404780000447D4000B4
:100CD000004080847D00007F102844000000417F98
:100CE0004000007C04180478007C08040478003874
:100CF0004444443800FC242424180018242418FCFC
:100D0000007C0804040800485454542000043F4464
:100D10004020003C4040207C001C2040201C003C27
:100D20004030403C004428102844001CA0A0A07C77
:100D3000004464544C4414141414141400000000AF
:100D4000000000000000000000000000000000F8AB
:100D500000000000000000333000000000100C060E
:100D6000100C0600000000000000000040C07840A9
:100D7000C0784000043F04043F040400007088FC75
:100D800008300000001820FF211E0000F008F000CD
:100D9000E018000000211C031E211E0000F008883E
:100DA000700000001E2123241927211010160E00A8
:100DB000000000000000000000000000000000E053
:100DC0001804020000000007182040000002041868
:100DD000E00000000040201807000000404080F0C4
:100DE000804040000202010F01020200000000F0FA
:100DF000000000000101011F0101010000000000CE
:100E00000000000080B07000000000000000000042
:100E100000000000000101010101010100000000CB
:100E20000000000000303000000000000000000062
:100E300080601804006018060100000000E010083F
:100E40000810E000000F102020100F00001010F814
:100E5000000000000020203F202000000070080853
:100E600008887000003028242221300000300888D3
:100E7000884830000018202020110E000000C020FB
:100E800010F8000000070424243F240000F808881C
:100E9000880808000019212020110E0000E01088A9
:100EA00088180000000F112020110E0000380808DB
:100EB000C83808000000003F0000000000708808EB
:100EC00008887000001C222121221C0000E010086C
:100ED0000810E0000000312222110F00000000C0C5
:100EE000C000000000000030300000000000008062
:100EF0000000000000008060000000000000804052
:100F0000201008000001020408102000404040406A
:100F100040404000040404040404040000081020BD
:100F20004080000000201008040201000070480802
:100F30000808F0000000003036010000C030C8286A
:100F4000E810E0000718272423140B000000C03825
:100F5000E0000000203C23020227382008F888889F
:100F600088700000203F202020110E00C0300808AB
:100F700008083800071820202010080008F8080882
:100F80000810E000203F202020100F0008F888887B
:100F9000E8081000203F20202320180008F8888847
:100FA000E8081000203F200003000000C0300808BF
:100FB0000838000007182020221E020008F8080048
:100FC0000008F808203F210101213F20000808F80F
:100FD000080800000020203F202000000000080832
:100FE000F8080800C08080807F00000008F888C0F2
:100FF00028180800203F20012638200008F80800A3
:1010000000000000203F20202020300008F8F800D9
:10101000F8F80800203F003F003F200008F830C0EB
:101020000008F808203F200007183F00E0100808DB
:101030000810E0000F10202020100F0008F808080A
:101040000808F000203F210101010000E01008081D
:101050000810E0000F18242438504F0008F8888842
:1010600088887000203F2000030C30200070880822
:10107000080838000038202121221C00180808F830
:10108000080818000000203F2000000008F80800B1
:101090000008F808001F202020201F000878880082
:1010A00000C83808000007380E010000F80800F8F2
:1010B0000008F800033C0700073C0300081868809C
:1010C0008068180820302C03032C30200838C80012
:1010D000C83808000000203F200000001008080861
:1010E000C83808002038262120201800000000FE03
:1010F000020202000000007F40404000000C30C0AF
:1011000000000000000000010638C00000020202DA
:10111000FE000000004040407F000000000004028C
:1011200002020400000000000000000000000000B7
:1011300000000000808080808080808000020204A7
:10114000000000000000000000000000000080809F
:10115000808000000019242222223F2008F800800D
:1011600080000000003F112020110E0000000080D0
:1011700080800000000E112020201100000000805F
:101180008088F800000E112020103F200000808091
:1011900080800000001F222222221300008080F0A5
:1011A000888888180020203F2020000000008080D0
:1011B00080808000006B94949493600008F8008015
:1011C00080800000203F210000203F200080989870
:1011D000000000000020203F2020000000000080D0
:1011E0009898000000C08080807F000008F8000010
:1011F00080808000203F24022D302000000808F865
:10120000000000000020203F20200000808080801F
:1012100080808000203F20003F20003F80800080B1
:1012200080800000203F210000203F2000008080BF
:1012300080800000001F202020201F008080008070
:101240008000000080FFA12020110E00000000801F
:1012500080808000000E112020A0FF808080800010
:101260008080800020203F2120000100000080803D
:10127000808080000033242424241900008080E032
:10128000808000000000001F2020000080800000FF
:1012900000808000001F202020103F2080808000E0
:1012A0000080808000010E300806010080800080F0
:1012B000008080800F300C030C300F000080800015
:1012C000808080000020312E0E3120008080800040
:1012D0000080808080818E701806010000808080F0
:1012E000808080000021302C22213000000000008E
:1012F000807C020200000000003F4040000000002F
:10130000FF00000000000000FF0000000002027C5F
:10131000800000000040403F000000000006010186
:10132000020204040000000000000000224400C08B
:101330005FD555D55FC000000402090F0000000012
:10134000000000000000000000000000080F080F6F
:10135000080F08000000000000000000000000006E
:1013600000000000000000000000000000FE0A8AEB
:10137000BEAAABAABE8A0A00080700080000000047
:10138000000000000000000000000000090A040442
:101390000A09080000000000000000000000000032
:1013A000000000000000000000000000CC13000856
:1013B0000000002018000000F0090008E4130008F5
:1013C0001800002000040000000A000800000000CF
:1013D00001020304010203040607080902040608C7
:0413E0000000000009
:04000005080000ED02
:00000001FF
