:020000040800F2
:100000008806002045010008550D0008AD080008CD
:10001000650C0008350200081116000800000000F9
:10002000000000000000000000000000A510000813
:10003000E5060008000000002D0E0008611300080E
:100040005F0100085F0100085F0100085F01000810
:100050005F0100085F0100085F0100085F01000800
:100060005F0100085F0100085F0100085F010008F0
:100070005F0100085F0100085F0100085F010008E0
:100080005F0100085F0100085F0100085F010008D0
:100090005F0100085F0100085F0100085F010008C0
:1000A0005F0100085F0100085F0100085F010008B0
:1000B0005F0100085F0100085F0100085F010008A0
:1000C0005F0100085F0100085F0100085F01000890
:1000D0005F0100085F0100085F010008C513000808
:1000E0005F0100085F0100085F0100085F01000870
:1000F0005F0100085F0100085F0100085F01000860
:100100005F0100085F0100085F0100085F0100084F
:100110005F0100085F0100085F0100085F0100083F
:100120005F0100085F0100085F0100085F0100082F
:10013000DFF80CD000F06CF800480047651A0008A2
:10014000880600200648804706480047FEE7FEE78D
:10015000FEE7FEE7FEE7FEE7FEE7FEE7FEE7FEE777
:10016000651300083101000840EA01039B0703D032
:1001700009E008C9121F08C0042AFAD203E011F8E6
:10018000013B00F8013B521EF9D27047D2B201E0A8
:1001900000F8012B491EFBD270470022F6E710B58C
:1001A00013460A4604461946FFF7F0FF204610BDE5
:1001B00030B505462A460B4612F8010B13F8014BE1
:1001C00008B1A042F8D01CB1002802D06D1CF1E7A4
:1001D000284630BD421C10F8011B0029FBD1801AB3
:1001E000704730B50B46014600202022012409E06B
:1001F00021FA02F59D4205D303FA02F5491B04FAE0
:1002000002F52844151EA2F10102F1DC30BD000008
:10021000064C074D06E0E06840F0010394E8070053
:1002200098471034AC42F6D3FFF786FF201B000836
:10023000401B000800BFFEE710B5052411E00C4A82
:1002400091881068FFF7A9FF0948016B09A088474A
:100250000749C822086809A100F082FA08B1012004
:1002600010BD201EA4F10101CCB2E8D100BFF7E718
:100270000400002041540D0A000000004F4B000014
:1002800010B50748016B07A08847322001F0BBFB7F
:100290000348016B03A08847322001F0B4FB10BD76
:1002A000040000202B2B2B002DE9FE4306460F46B1
:1002B00015463046FFF78EFF02903846FFF78AFF5B
:1002C00001902846FFF786FF00904FF002080020BB
:1002D0009649888102980C300199891C0144009844
:1002E000801C0C181021914882898089401C8F4BFA
:1002F000988118468068815400BF2046E21704EBBD
:100300005262D211A4EBC212D1B2E21704EB5262D4
:10031000D411002C01DD41F080018448828980895C
:10032000401C824B9881184680688154002CE4DC84
:100330000022184681898089401C9881184680686F
:1003400042540421184682898089401C98811846AD
:10035000806881544D22184681898089401C98818B
:100360001846806842545121184682898089401C71
:100370009881184680688154542118468289808962
:10038000401C9881184680688154542218468189FF
:100390008089401C9881184680684254042218467F
:1003A00081898089401C9881184680684254C22205
:1003B000184681898089401C98811846806842547B
:1003C0000021184682898089401C988118468068DF
:1003D00081543C21184682898089401C98811846A6
:1003E000806881549DF80920184681898089401CC5
:1003F00098811846806842549DF8081018468289F2
:100400008089401C98811846806881541946896803
:100410001A46928988183146029AFFF7A5FE43488A
:10042000808902990844414988810198002823DD88
:100430009DF805103D4882898089401C3B4B98817E
:100440001846806881549DF8041018468289808976
:10045000401C9881184680688154194689681A465C
:10046000928988183946019AFFF77EFE2F488089C5
:10047000019908442D4988810098002823DD9DF8C2
:1004800001102A4882898089401C284B988118468F
:10049000806881549DF80010184682898089401C2C
:1004A0009881184680688154194689681A4692894D
:1004B00088182946009AFFF757FE1C488089009942
:1004C00008441A49888127E0184A91881068FFF784
:1004D00064FE164A9189906800F034FC4FF01E09C2
:1004E00013E012480068007811490978884209D160
:1004F0000E48006840780E494978884202D10120B0
:10050000BDE8FE83642001F07EFAB9F10000A9F194
:10051000010101F0FF09E4D1B8F10000A8F10101E7
:1005200001F0FF08D0D100BFEAE700003C00002046
:10053000141B000870B505460E46052410E0214A3C
:1005400091881068FFF729FE1E48016B1EA088479E
:100550001C49C822086821A100F002F900B104E09A
:10056000201EA4F10101CCB2E9D100BF0CB90020DA
:1005700070BD02241EE0134A91899068FFF70DFEBA
:10058000104A91881068FFF708FE0E4933462A4644
:10059000886813A101F032F90A4A9068116B884704
:1005A00008494FF4FA5208680CA100F0D9F808B1D4
:1005B0000120DDE7201EA4F10101CCB2DBD100BF98
:1005C000D6E700000400002041542B43574D4F4410
:1005D000455F4355523D310D0A0000004F4B00006E
:1005E00041542B43574A41505F4355523D22257396
:1005F000222C222573220D0A00000000F8B50546C2
:100600000E4617462849C86A80474FF4FA7001F031
:10061000FAF902241EE0244A91881068FFF7BDFD14
:10062000214A91899068FFF7B8FD1F49009733462A
:100630002A4688681DA101F0E1F81B4A9068116BF9
:10064000884719494FF4FA5208681FA100F088F84A
:1006500000B104E0201EA4F10101CCB2DBD100BF47
:100660000CB90020F8BD1049886A804708B90020FD
:10067000F8E7022411E00C4A91881068FFF78DFD1D
:100680000948016B12A088470749C822086814A1CD
:1006900000F066F808B10120E4E7201EA4F1010192
:1006A000CCB2E8D100BFDDE70400002041542B4369
:1006B000495053544152543D222573222C22257314
:1006C000222C25640D0A0000434F4E4E4543540032
:1006D00041542B43495053454E440D0A000000003D
:1006E0003E0000007047000010B50221014800F0F4
:1006F00029FB10BD181B000810B51249C86A8047B5
:100700004FF4FA7001F07FF910E00E4A91881068FA
:10071000FFF743FD0B48016B0BA088470949C8222E
:1007200008680DA100F01CF800B104E0201EA4F13F
:100730000101CCB2E9D100BF0CB1012010BD0020F5
:10074000FCE700000400002041542B434950434C77
:100750004F53450D0A000000434C4F5345440000E1
:1007600070B505460E4614460A2094FBF0F084B29C
:1007700002E00A2001F047F931462846FFF718FD4C
:1007800020B9201EA4F101018CB2F2D10CB10120DC
:1007900070BD0020FCE72DE9F0410246002500264F
:1007A000002000230024002791F803C00CF00F055F
:1007B00091F803C00CF0100CBCF1000F03D091F8BD
:1007C00002C04CEA050591F800C0BCF1000F31D021
:1007D000146800202BE04FF0010C0CFA00F3B1F884
:1007E00000C00CEA03069E4220D183004FF00F0C9C
:1007F0000CFA03F7BC4305FA03FC4CEA040491F835
:1008000003C0BCF1280F06D14FF0010C0CFA00FC1C
:10081000C2F814C00AE091F803C0BCF1480F05D13A
:100820004FF0010C0CFA00FCC2F810C0401C082864
:10083000D1D31460B1F800C0BCF1FF0F34DD5468AF
:1008400000202EE000F1080C4FF0010808FA0CF32C
:10085000B1F800C00CEA03069E4221D183004FF09C
:100860000F0C0CFA03F7BC4305FA03FC4CEA040432
:1008700091F803C0BCF1280F05D100F1080C08FA6B
:100880000CF8C2F8148091F803C0BCF1480F07D1EE
:1008900000F1080C4FF0010808FA0CF8C2F81080BB
:1008A000401C0828CED35460BDE8F08100BFFEE7AD
:1008B0002DE9F04104460D4616461F461C480460CB
:1008C000858086608781024691881068FFF765FC05
:1008D000174A91899068FFF760FC1549C86A8047FC
:1008E0004FF4FA7001F08FF81148016B11A088479E
:1008F0004FF4487001F087F80D490869804710B936
:100900000020BDE8F0810A4A91881068FFF745FC95
:100910000748016B0AA0884705494FF4FA72086836
:1009200009A1FFF71DFF08B90020EAE70120E8E769
:100930000400002041542B5253540D0A00000000C3
:10094000415445300D0A00004F4B00002DE9F041A5
:1009500004460D4616461F460E4804608580866094
:100960008781024691881068FFF717FC094A918930
:100970009068FFF712FC0749486A8047642001F03D
:1009800042F80449486A8047642001F03CF8BDE819
:10099000F08100003C00002010B540484FF4807307
:1009A0003F4A194644693F48A04740B13EA000F085
:1009B00015FF41480078401C3F49087005E03FA002
:1009C00000F00CFF00203C4908703B4800780128EB
:1009D00014D132483EA1C26941A0904740B144A021
:1009E00000F0FCFE34480078401C3349087005E0F4
:1009F00044A000F0F3FE00202F4908702E48007834
:100A0000022816D1254840F25B7243A1036A4FA029
:100A1000984740B14EA000F0E1FE27480078401C06
:100A20002549087005E050A000F0D8FE00202249BA
:100A300008702148007803281DD151484FF4807375
:100A4000174A194604691748A0474D484DA258A1B6
:100A500043695CA0984740B168A000F0BFFE16480B
:100A60000078401C1449087005E069A000F0B6FE4B
:100A70000020114908701048007804280DD1404822
:100A800001220021836967A0984718B169A000F08E
:100A9000A5FE02E06DA000F0A1FE10BD0400002044
:100AA00084000020840100204E657420496E697422
:100AB000204F4B210D0A0000000000204E657420DD
:100AC000496E6974204572726F72210D0A00000030
:100AD0006C696D75746F6E674071712E636F6D0018
:100AE00054656E64615F4132324143300000000062
:100AF000436F6E6E636574204150204F4B210D0A89
:100B000000000000436F6E6E636574204150204505
:100B100072726F72210D0A0061313452626C485456
:100B20006C794B2E696F742D61732D6D7174742EF9
:100B3000636E2D7368616E676861692E616C697997
:100B4000756E63732E636F6D000000005443500098
:100B5000436F6E6E63657420536572766572204FC5
:100B60004B210D0A00000000436F6E6E6365742018
:100B7000536572766572204572726F72210D0A009C
:100B80003C0000204132463339454436373538324F
:100B900036303336433431314146454243444430A4
:100BA000433031413841443530443645000000007F
:100BB000616C6C616C6C2661313452626C48546CAF
:100BC000794B000031323334357C7365637572655F
:100BD0006D6F64653D332C7369676E6D6574686F06
:100BE000643D686D6163736861312C74696D657310
:100BF00074616D703D3132337C000000456E746568
:100C000072204D515454204F4B210D0A000000001A
:100C1000456E746572204D515454204572726F7246
:100C2000210D0A002F6D7174742F746F7069632F1A
:100C300031000000537562736372696265546F70AE
:100C40006963204F4B210D0A000000005375627349
:100C50006372696265546F706963204572726F7266
:100C6000210D0A0000BFFEE72DE9F0470746884640
:100C70000FF2A8094846FFF7ADFA401EC6B200249D
:100C800012E0002508E06019385C19F80510884268
:100C900000D003E0681CC5B2B542F4DB00BFB5422A
:100CA00000D105E0601CC4B2A8EB0600A042E8DC5D
:100CB00000BFA8EB0600A0422EDB4FF0000A381957
:100CC0001749086004E016480068401C1449086091
:100CD0001348006800783A28F5D111480068401C94
:100CE0000F4908600EE00E480068007830380AEBC3
:100CF0008A0100EB41001FFA80FA09480068401C95
:100D0000074908600648006800787D28EBD1514605
:100D100004A000F063FD00BFBDE8F08768756500C2
:100D2000640000200D0A72656365697665206D6553
:100D300073736167652C20687565203D20256420EC
:100D40000D0A000070B505460C46E1B2284600F0D9
:100D50001AFD70BD7047000070B5002100230F22FE
:100D6000C47804B3154C246804F4E064C4F5E0646A
:100D7000210AC1F10403CA40447804FA03F18478DB
:100D80001440214309010E4C0678A155047804F063
:100D90001F050124AC4005786D11AD0005F1E0257B
:100DA000C5F8004109E0047804F01F050124AC40B7
:100DB000044D0678761145F8264070BD0CED00E034
:100DC00000E400E080E100E002490143024A1160D2
:100DD000704700000000FA050CED00E010B5022499
:100DE00011E00C4A91881068FFF7D7F90948016BA8
:100DF00009A088470749C82208680BA1FFF7B0FC83
:100E000008B1012010BD201EA4F10101CCB2E8D12F
:100E100000BFF7E70400002041542B4349504D4FD9
:100E200044453D310D0A00004F4B00007047000063
:100E30002DE9F8430746884616463846FFF7CAF9B3
:100E400000904046FFF7C6F90546002042498881D8
:100E50001EB10098001D441902E00098801C44193E
:100E600030213D4882898089401C3B4B988118463F
:100E70008068815400BF2046E21704EB5262D21111
:100E8000A4EBC212D1B2E21704EB5262D411002CCF
:100E900001DD41F08001304882898089401C2E4B61
:100EA0009881184680688154002CE4DC9DF801107C
:100EB000184682898089401C988118468068815430
:100EC0009DF80020184681898089401C9881184629
:100ED00080684254194689681A46928988183946AA
:100EE000009AFFF741F91C488089009908441A4983
:100EF0008881CEB119484178174882898089401C81
:100F0000154B988118468068815414480278184619
:100F100081898089401C98811846806842540F4816
:100F20000088401C0D4908800B4989680A4A92894B
:100F300088182A464146FFF717F907488089284450
:100F4000054988810A4691899068FFF7FBFE0248AF
:100F5000007BBDE8F88300003C0000206800002012
:100F600029B1064AD2690243044BDA6104E0034A1C
:100F7000D2698243014BDA617047000000100240E1
:100F800029B1064A92690243044B9A6104E0034A7C
:100F900092698243014B9A61704700000010024041
:100FA00030B500210022002400232D4D6D6805F08E
:100FB0000C0121B1042905D0082923D105E0294DD0
:100FC000056022E0274D05601FE0254D6D6805F4A2
:100FD0007012234D6D6805F48034022505EB9242B2
:100FE0001CB9214D554305600BE01D4D6D6805F49E
:100FF00000351DB11C4D5543056002E0194D5543A8
:10100000056002E0174D056000BF00BF144D6D681C
:1010100005F0F0010909154D6B5C0568DD40456080
:101020000F4D6D6805F4E061090A104D6B5C456871
:10103000DD4085600A4D6D6805F46051C90A0B4DAD
:101040006B5C4568DD40C560054D6D6805F4404149
:10105000890B074D6B5CC568B5FBF3F5056130BDC9
:101060000010024000127A0000093D006A000020D2
:101070007A00002010B50649C86A80474FF4FA701C
:1010800000F0C1FC0248016B02A0884710BD0000BF
:101090000400002041542B524553544F52450D0A31
:1010A000000000007047000070B505460C46054A78
:1010B00091881068FFF771F8E1B2284600F063FBF1
:1010C00070BD00000400002010B50446044A918859
:1010D0001068FFF762F8204600F074FB10BD0000B6
:1010E0000400002010B502210148FFF72BFE10BDBF
:1010F0001A1B000810B500F001F810BD0CB5002057
:10110000019000903348006840F480303149086015
:1011100000BF3048006800F4003000900198401C87
:101120000190009818B90198B0F5A06FF1D1294845
:10113000006800F4003010B10120009001E00020B0
:1011400000900098012843D12348006840F0100027
:10115000214908600846006820F00300086008463E
:10116000006840F0020008601A4840681949486069
:101170000846406848600846406840F4806048601F
:101180000846406820F47C1048600846406840F4F7
:10119000E81048600846006840F08070086000BFB2
:1011A0000C48006800F000700028F9D00948406839
:1011B00020F00300074948600846406840F00200FC
:1011C000486000BF0348406800F00C000828F9D1CF
:1011D0000CBD000000100240002002402DE9F84341
:1011E00006460F4615464FF002083046FEF7F2FF5E
:1011F00000900098001D0DB1012100E0002144186D
:1012000000205549888155B18221534882898089BF
:10121000401C514B988118468068815409E0A221F6
:101220004D4882898089401C4B4B988118468068C4
:10123000815400BF2046E21704EB5262D211A4EBA6
:10124000C212D1B2E21704EB5262D411002C01DDBC
:1012500041F08001404882898089401C3E4B988142
:10126000184680688154002CE4DC002118468289ED
:101270008089401C98811846806881540121184655
:1012800082898089401C98811846806881549DF825
:101290000110184682898089401C98811846806810
:1012A00081549DF80010184682898089401C9881DD
:1012B000184680688154194689681A4692898818A8
:1012C0003146009AFEF750FF234880890099084470
:1012D0002149888145B1084681898089401C1E4A80
:1012E000908110468068475427E01B4A9188106817
:1012F000FEF753FF184A91899068FFF723FD4FF0DE
:101300001E0913E0144800680078144909788842DF
:1013100009D111480068407810494978884202D1C3
:101320000120BDE8F883642000F06DFBB9F10000F6
:10133000A9F1010101F0FF09E4D1B8F10000A8F121
:10134000010101F0FF08D0D1B8F1000F01D0012058
:10135000E7E70020E5E700003C0000201E1B000836
:101360007047000010B51348006840F001001149B3
:10137000086008464068104908400E494860084621
:1013800000680E4908400B4908600846006820F4D0
:10139000802008600846406820F4FE0048604FF452
:1013A0001F008860FFF7A6FE4FF000600449086048
:1013B00010BD0000001002400000FFF8FFFFF6FE25
:1013C00008ED00E010B540F225511B4800F060F830
:1013D000E8B11948001D00881849087008460078CF
:1013E0001749088017480078FF2802DB00201549BC
:1013F000087012480178134802780078401C114B9D
:10140000187011488154184600781946087040F247
:101410002441094800F03CF868B10748001D0088E5
:101420000649087004480088087006480078054995
:1014300008700020087010BD004800400100002026
:1014400004380140020000208401002001F40072F1
:10145000B2F5007F00D100BFCA430280704721B1BE
:10146000828942F40052828104E082894DF6FF7342
:101470001A408281704702460020B1F5007F00D1FA
:1014800000BF13880B400BB1012000E00020704723
:1014900070B50246002400230025002040F66A169D
:1014A000B14200D100BFC1F3421501F01F03012674
:1014B00006FA03F3012D02D19689334006E0022D8E
:1014C00002D1168A334001E0968A33400C1201267D
:1014D00006FA04F41688344013B10CB1012000E080
:1014E000002070BDF0B50346002400260025002032
:1014F00040F66A17B94200D100BF1846C1F3421442
:1015000001F01F06012707FA06F5012C01D10C3066
:1015100004E0022C01D1103000E014301AB1076849
:101520002F43076002E00768AF430760F0BD00008B
:101530002DE9F04786B005460E460024A24600BFBE
:10154000A1460027B08900B100BF2F462C8A4CF677
:10155000FF700440F08804432C82AC894EF6F310EF
:101560000440B08831890843718908430443AC8141
:10157000AC8A4FF6FF400440B0890443AC8201A816
:10158000FFF70EFD1F48874202D1DDF810A001E0F1
:10159000DDF80CA0A88900F4004040B10AEBCA00B5
:1015A00000EB0A1031684900B0FBF1F807E00AEBE4
:1015B000CA0000EB0A1031688900B0FBF1F8642022
:1015C000B8FBF0F004012009642101FB1089A8890F
:1015D00000F4004040B1322000EBC900B0FBF1F054
:1015E00000F00700044308E0322000EB09106421FA
:1015F000B0FBF1F000F00F0004432C8106B0BDE811
:10160000F087000000380140C1F308028280704773
:1016100000BFFEE710B586B00446012144F2040085
:10162000FFF7AEFC4FF40070ADF8140003208DF806
:10163000160018208DF8170005A91448FFF7ABF81D
:101640004FF48060ADF8140004208DF8170005A950
:101650000E48FFF7A0F801940020ADF80800ADF89F
:101660000A00ADF80C00ADF810000C20ADF80E002B
:1016700001A90748FFF75CFF01210548FFF7EFFECE
:1016800040210348FFF7E2FE06B010BD000801400C
:101690000038014010B5044621460548FFF7B4FF65
:1016A00000BF40210248FFF7E6FE0028F9D010BD38
:1016B0000038014010B5044603E014F8010BFFF7B1
:1016C000E9FF20780028F8D110BD000010B586B0E1
:1016D000044601210820FFF753FC01218804FFF78D
:1016E0003FFC4FF48060ADF8140018208DF817000F
:1016F00003208DF8160005A91948FFF74CF84FF4A0
:101700000060ADF8140004208DF8170005A91448F6
:10171000FFF741F801940020ADF80800ADF80A0089
:10172000ADF80C00ADF810000C20ADF80E0001A9CA
:101730000C48FFF7FDFE01210A48FFF790FE012249
:1017400040F225510748FFF7CDFE012240F2244127
:101750000448FFF7C7FE00F007F806B010BD000010
:10176000000C01400048004008B527208DF800001B
:1017700001208DF801008DF802008DF80300684605
:10178000FFF7EAFA08BD70B504460D4603E014F809
:10179000010B00F007F8281EA5F10101CDB2F6D12A
:1017A00070BD000010B5044621460548FFF72CFF28
:1017B00000BF40210248FFF75EFE0028F9D010BDAF
:1017C0000048004010B5044603E014F8010BFFF791
:1017D000E9FF20780028F8D110BD00000FB4054BB8
:1017E00010B503A9044A029800F02CF810BC5DF86B
:1017F00014FB0000411A0008800000200FB4084BC1
:1018000010B504A902AA039800F01CF8044602A926
:10181000002000F0F3F8204610BC5DF814FB000037
:10182000FD19000802E008C8121F08C1002AFAD1F9
:1018300070477047002001E001C1121F002AFBD150
:10184000704700002DE9FF4F8BB09A460F460546C2
:10185000002606E025280BD052460D9990476D1CB6
:10186000761C28780028F5D10FB03046BDE8F08FFF
:101870000024A0460122604900E0044315F8013F1E
:10188000203B02FA03F00842F7D128782E2817D11E
:1018900015F8010F44F004042A280ED06FF02F022F
:1018A0002878A0F1300109290AD808EB880102EB59
:1018B000410100EB01086D1CF2E757F8048B6D1C29
:1018C000287869283ED006DC0028CDD063280BD0CC
:1018D000642804D136E0732810D075284BD05246C6
:1018E0000D999047761C85E017F8040B8DF80000E1
:1018F00000208DF80100E946012003E057F8049B21
:101900004FF0FF3061074FF0000401D40AE0641C7F
:1019100044450DDA8442FADB19F804100029F6D1A7
:1019200006E0641C8442FCDB19F804100029F8D19D
:10193000264404E019F8010B52460D999047641EA5
:10194000F8D257E001CF4FF00A0B002802DA4042EC
:101950002D2102E0210504D52B218DF82410012131
:1019600003E0E10705D02021F7E70DF120090891F8
:101970000CE00021F9E701CF4FF00A0BF9E75946D7
:10198000FEF72FFC01F1300209F8012D0028F6D1F5
:10199000ADEB090000F1200B600701D44FF0010806
:1019A000D84502DDA8EB0B0000E0002080460024B3
:1019B00006E009A85246005D0D999047641C761C0C
:1019C00008988442F5DB04E0302052460D99904798
:1019D000761CB8F10001A8F10108F5DC05E019F862
:1019E000010B52460D999047761CBBF10001ABF1FB
:1019F000010BF4DC6D1C34E7092801000A68531C54
:101A00000B6010707047014642F228324A434FF093
:101A1000E0235A6101221A6100229A6100BF4FF04F
:101A2000E022106900F001021AB100F48032002AAD
:101A3000F5D000224FF0E0231A619A617047000050
:101A400070B504460D46E1B20548FFF7DDFD00BF65
:101A500080210348FFF70FFD0028F9D0204670BD14
:101A60000038014000244FF4A060FFF7ADF94FF4B7
:101A7000E130FFF7CFFD4FF4E130FFF727FE17A06D
:101A8000FFF718FEC820FFF7BEFFFEF785FF002016
:101A90001649087020E0601C80B2044640F6B83158
:101AA000884206DB00241248002212A1C36915A057
:101AB00098470F48808860B10D4A91881068FFF7F9
:101AC000D3F80B4A91881068FEF767FB002008499D
:101AD00088800A20FFF797FFDDE7000075736172C9
:101AE0007431206973206F6B210D0A000000002003
:101AF0003C00002048656C6C6F2C536572766572F3
:101B0000000000002F6D7174742F746F7069632F63
:101B10003000000020020000E000C000C000900380
:101B2000401B00080000002084000000241800086A
:101B3000C41B0008840000200406000034180008BC
:101B40000000000000000000000000000000000095
:101B50000000000039020008B108000875100008F4
:101B600035050008FD050008F9060008DD0D000830
:101B700081020008C9100008A91000080000000038
:101B80000000000000000000000000004D090008F7
:101B9000A9020008DD110008310E0008E510000858
:101BA000E90600080000000000000000000001023B
:101BB00003040102030406070809020406080000E2
:041BC0000000000021
:0400000508000131BD
:00000001FF
