:020000040800F2
:10000000F80600204501000805070008DB05000888
:10001000DF050008470200081D0F0008000000006F
:10002000000000000000000000000000E9080008D7
:1000300059030008000000008D070008D5090008DA
:100040005F0100085F0100085F0100085F01000810
:100050005F0100085F0100085F0100085F01000800
:100060005F0100085F0100085F0100085F010008F0
:100070005F0100085F0100085F0100085F010008E0
:100080005F0100085F0100085F0100085F010008D0
:100090005F0100085F0100085F0100085F010008C0
:1000A0005F0100085F0100085F0100085F010008B0
:1000B0005F010008390A00085F0100085F010008BD
:1000C0005F0100085F0100085F0100085F01000890
:1000D0005F0100085F0100085F010008510C000883
:1000E0005F0100085F0100085F0100085F01000870
:1000F0005F0100085F0100085F0100085F01000860
:100100005F0100085F0100085F0100085F0100084F
:100110005F0100085F0100085F0100085F0100083F
:100120005F0100085F0100085F0100085F0100082F
:10013000DFF80CD000F05AF800480047B912000868
:10014000F80600200648804706480047FEE7FEE71D
:10015000FEE7FEE7FEE7FEE7FEE7FEE7FEE7FEE777
:10016000D909000831010008D2B201E000F8012BE2
:10017000491EFBD270470022F6E710B513460A4627
:1001800004461946FFF7F0FF204610BD30B505467E
:100190002A460B4612F8010B13F8014B08B1A04296
:1001A000F8D01CB1002802D06D1CF1E7284630BD04
:1001B000421C10F8011B0029FBD1801A704730B592
:1001C0000B46014600202022012409E021FA02F515
:1001D0009D4205D303FA02F5491B04FA02F52844AF
:1001E000151EA2F10102F1DC30BD0000064C074DE6
:1001F00006E0E06840F0010394E8070098471034F7
:10020000AC42F6D3FFF798FF3816000858160008DE
:1002100070B505460E4614460A2094FBF0F084B2F1
:1002200002E00A2001F019F831462846FFF7AEFF38
:1002300020B9201EA4F101018CB2F2D10CB1012031
:1002400070BD0020FCE700BFFEE7000070B504466B
:100250000D464FF480710B48FFF78DFF0AA30EA2E5
:1002600011A1184800F0F4FE164800F0D5FE4FF436
:10027000FA5215A10348FFF7CBFF08B1012070BD6A
:100280000020FCE7F40100206C696D75746F6E67E7
:100290004071712E636F6D0054656E64615F413211
:1002A000324143300000000041542B43574A415033
:1002B0005F4355523D222573222C222573220D0ABD
:1002C00000000000F40000204F4B0000F8B5044689
:1002D0000D46164614A000F09FFE322000F0BDFF30
:1002E00011A000F099FE322000F0B7FF4FF4FA7031
:1002F00000F0B3FF4FF480710C48FFF73CFF2B4632
:1003000022460BA11148009600F0A2FE0F4800F013
:1003100083FE4FF4FA520EA10448FFF779FF08B1AB
:100320000120F8BD0020FCE72B2B2B00F40100205E
:1003300041542B43495053544152543D222573227A
:100340002C222573222C25640D0A0000F4000020C5
:10035000434F4E4E454354007047000010B54FF4D4
:1003600080713648FFF707FF4FF480713448FFF77C
:1003700002FF00F097FA4FF480713048FFF7FBFE60
:1003800030A000F049FE00BFC82230A12B48FFF783
:100390003FFF0028F8D04FF480712848FFF7EBFEAC
:1003A0002BA000F039FE00BF4FF4FA7227A12348BA
:1003B000FFF72EFF0028F7D04FF480711F48FFF79A
:1003C000DAFE25A000F028FE00BFC8221FA11B48AE
:1003D000FFF71EFF0028F8D000BF24A127A0FFF7D9
:1003E00035FF0028F9D000BF40F25B7227A12BA097
:1003F000FFF76CFF0028F7D04FF480710F48FFF72C
:10040000BAFE27A000F008FE00BFC8220FA10B48CB
:10041000FFF7FEFE0028F8D04FF480710748FFF781
:10042000AAFE23A000F0F8FD00BFC82224A10348C3
:10043000FFF7EEFE0028F8D010BD0000F401002008
:10044000F400002041540D0A000000004F4B000052
:10045000415445300D0A000041542B43574D4F4441
:10046000455F4355523D310D0A0000006C696D75C2
:10047000746F6E674071712E636F6D0054656E64AA
:10048000615F4132324143300000000036322E328B
:1004900033342E35362E31393900000054435000A4
:1004A00041542B4349504D4F44453D310D0A000006
:1004B00041542B43495053454E440D0A000000005F
:1004C0003E0000002DE9F0410246002500260020F4
:1004D00000230024002791F803C00CF00F0591F8C9
:1004E00003C00CF0100CBCF1000F03D091F802C057
:1004F0004CEA050591F800C0BCF1000F31D014683A
:1005000000202BE04FF0010C0CFA00F3B1F800C012
:100510000CEA03069E4220D183004FF00F0C0CFA28
:1005200003F7BC4305FA03FC4CEA040491F803C04A
:10053000BCF1280F06D14FF0010C0CFA00FCC2F8F8
:1005400014C00AE091F803C0BCF1480F05D14FF088
:10055000010C0CFA00FCC2F810C0401C0828D1D3D2
:100560001460B1F800C0BCF1FF0F34DD5468002006
:100570002EE000F1080C4FF0010808FA0CF3B1F876
:1005800000C00CEA03069E4221D183004FF00F0CFD
:100590000CFA03F7BC4305FA03FC4CEA040491F897
:1005A00003C0BCF1280F05D100F1080C08FA0CF8C3
:1005B000C2F8148091F803C0BCF1480F07D100F1D4
:1005C000080C4FF0010808FA0CF8C2F81080401C23
:1005D0000828CED35460BDE8F08100BFFEE700BF1D
:1005E000FEE7000010B5FFF7B9FE2BA32CA22EA149
:1005F0002F4800F0A5FE2F490880084601782C48B6
:1006000000F0EBFC1E2402E0642000F026FE2A48E5
:1006100000782A49097888420AD027484078274933
:100620004978884204D0201EA4F10101CCB2EBD15C
:1006300023A000F0FDFC4FF480711F48FFF79BFDE5
:10064000C8211B48FFF797FD0123002223A118486A
:1006500000F098FF1749088008460178144800F018
:10066000BCFC1E2402E0642000F0F7FD1248007874
:100670001C49097888420AD00F48407819494978BE
:10068000884204D0201EA4F10101CCB2EBD116A007
:1006900000F0CEFC10BD00007075626C6963000054
:1006A00061646D696E00000031323334353600000C
:1006B0002C00002000000020F4010020301600086B
:1006C0000D0A4D5154545F436F6E6E656374205331
:1006D00075636365737366756C0D0A007465737476
:1006E00000000000341600080D0A5375627363722F
:1006F000696265205375636365737366756C0D0A73
:10070000000000007047000070B5002100230F2298
:10071000C47804B3154C246804F4E064C4F5E064C0
:10072000210AC1F10403CA40447804FA03F1847831
:100730001440214309010E4C0678A155047804F0B9
:100740001F050124AC4005786D11AD0005F1E025D1
:10075000C5F8004109E0047804F01F050124AC400D
:10076000044D0678761145F8264070BD0CED00E08A
:1007700000E400E080E100E002490143024A116028
:10078000704700000000FA050CED00E07047000023
:1007900029B1064AD2690243044BDA6104E0034AF4
:1007A000D2698243014BDA617047000000100240B9
:1007B00029B1064A92690243044B9A6104E0034A54
:1007C00092698243014B9A61704700000010024019
:1007D00030B500210022002400232D4D6D6805F066
:1007E0000C0121B1042905D0082923D105E0294DA8
:1007F000056022E0274D05601FE0254D6D6805F47A
:100800007012234D6D6805F48034022505EB924289
:100810001CB9214D554305600BE01D4D6D6805F475
:1008200000351DB11C4D5543056002E0194D55437F
:10083000056002E0174D056000BF00BF144D6D68F4
:1008400005F0F0010909154D6B5C0568DD40456058
:100850000F4D6D6805F4E061090A104D6B5C456849
:10086000DD4085600A4D6D6805F46051C90A0B4D85
:100870006B5C4568DD40C560054D6D6805F4404121
:10088000890B074D6B5CC568B5FBF3F5056130BDA1
:100890000010024000127A0000093D001100002003
:1008A0002100002010B50CA000F0B6FB322000F0B3
:1008B000D4FC09A000F0B0FB322000F0CEFC4FF4D5
:1008C000FA7000F0CAFC05A000F0A6FB4FF44870D7
:1008D00000F0C3FC10BD00002B2B2B0041542B5209
:1008E00053540D0A00000000704710B500F002F8E4
:1008F00010BD00000CB50020019000903348006846
:1009000040F480303149086000BF3048006800F48E
:10091000003000900198401C0190009818B901988F
:10092000B0F5A06FF1D12948006800F4003010B193
:100930000120009001E0002000900098012843D1A0
:100940002348006840F0100021490860084600680C
:1009500020F0030008600846006840F002000860CC
:100960001A48406819494860084640684860084687
:10097000406840F4806048600846406820F47C107D
:1009800048600846406840F4E8104860084600683F
:1009900040F08070086000BF0C48006800F00070F4
:1009A0000028F9D00948406820F003000749486052
:1009B0000846406840F00200486000BF03484068B5
:1009C00000F00C000828F9D10CBD00000010024016
:1009D000002002407047000010B51348006840F046
:1009E00001001149086008464068104908400E4956
:1009F0004860084600680E4908400B4908600846F0
:100A0000006820F4802008600846406820F4FE005A
:100A100048604FF41F008860FFF767FF4FF00060E9
:100A20000449086010BD0000001002400000FFF8FB
:100A3000FFFFF6FE08ED00E010B501211E4800F0B2
:100A40006CF8012832D11D480078401C1B49087001
:100A5000084600780A2829DB00200870184800F0B2
:100A600023FD1849087008460178154800F0B5FACA
:100A70001E201549087002E0642000F0EEFB1348C8
:100A800000781349097888420DD010484078104901
:100A90004978884207D00C4801780078401E0A4AFD
:100AA00010700029E8D10BA000F0C2FA0121024821
:100AB00000F024F810BD00000004004010000020E9
:100AC0000C0000200A0000200B000020F401002090
:100AD0000E0000200D0A53656E642070696E672059
:100AE0007061636B6167652069732073756363650B
:100AF000737366756C210D0A00000000CA43028200
:100B0000704721B1028842F00102028004E00288AD
:100B10004FF6FE731A400280704730B5024600203F
:100B200000230024158A05EA0103958905EA0104DA
:100B300013B10CB1012000E0002030BD1AB183894F
:100B40000B43838102E083898B43838170470000DC
:100B5000002202881D4B98420ED01D4B98420BD0AC
:100B6000B0F1804F08D01B4B984205D01A4B9842E9
:100B700002D01A4B984204D14FF68F731A404B881B
:100B80001A43174B984207D0164B984204D04FF6A1
:100B9000FF431A40CB881A4302808B8883850B88D9
:100BA00003850A4B98420BD0094B984208D00E4B54
:100BB000984205D00D4B984202D00D4B984201D17E
:100BC0000B7A03860123838270470000002C0140CA
:100BD000003401400004004000080040000C0040C8
:100BE000001000400014004000400140004401405B
:100BF000004801407FB505460C4601210220FFF761
:100C0000C7FDADF80850ADF804400020ADF80A006B
:100C1000ADF8060001A90D48FFF79AFF0122114621
:100C20000A48FFF78BFF1D208DF8000001208DF88A
:100C3000030000208DF801008DF802006846FFF7E0
:100C400063FD01210148FFF75CFF7FBD0004004008
:100C500010B540F225511B4800F060F8E8B1194882
:100C6000001D008818490870084600781749088058
:100C700017480078FF2802DB002015490870124849
:100C80000178134802780078401C114B1870114805
:100C90008154184600781946087040F224410948EA
:100CA00000F03CF868B10748001D0088064908704C
:100CB000044800880870064800780549087000203C
:100CC000087010BD004800400800002004380140B2
:100CD00009000020F401002001F40072B2F5007F49
:100CE00000D100BFCA430280704721B1828942F41B
:100CF0000052828104E082894DF6FF731A4082819E
:100D0000704702460020B1F5007F00D100BF138874
:100D10000B400BB1012000E00020704770B5024687
:100D2000002400230025002040F66A16B14200D1BD
:100D300000BFC1F3421501F01F03012606FA03F3B9
:100D4000012D02D19689334006E0022D02D1168A88
:100D5000334001E0968A33400C12012606FA04F46F
:100D60001688344013B10CB1012000E0002070BDA2
:100D7000F0B50346002400260025002040F66A173F
:100D8000B94200D100BF1846C1F3421401F01F065A
:100D9000012707FA06F5012C01D10C3004E0022CE2
:100DA00001D1103000E014301AB107682F430760FA
:100DB00002E00768AF430760F0BD00002DE9F0478F
:100DC00086B005460E460024A24600BFA146002775
:100DD000B08900B100BF2F462C8A4CF6FF7004404A
:100DE000F08804432C82AC894EF6F3100440B0889E
:100DF00031890843718908430443AC81AC8A4FF6BA
:100E0000FF400440B0890443AC8201A8FFF7E0FC36
:100E10001F48874202D1DDF810A001E0DDF80CA0E8
:100E2000A88900F4004040B10AEBCA0000EB0A10A8
:100E300031684900B0FBF1F807E00AEBCA0000EBAB
:100E40000A1031688900B0FBF1F86420B8FBF0F0BB
:100E500004012009642101FB1089A88900F40040E5
:100E600040B1322000EBC900B0FBF1F000F0070008
:100E7000044308E0322000EB09106421B0FBF1F0DC
:100E800000F00F0004432C8106B0BDE8F08700009D
:100E90000038014010B586B00446012144F2040038
:100EA000FFF786FC18208DF817004FF40070ADF89E
:100EB000140003208DF8160005A91448FFF702FB63
:100EC00004208DF817000002ADF8140005A90F48A2
:100ED000FFF7F8FA01940020ADF810000C20ADF8EF
:100EE0000E000020ADF80C00ADF80A00ADF80800C7
:100EF00001A90748FFF762FF01210548FFF7F5FE4A
:100F000040210348FFF7E8FE06B010BD000801408D
:100F100000380140C1F308028280704700BFFEE73D
:100F200010B586B0044601210820FFF741FC0121DD
:100F30008804FFF72DFC4FF48060ADF814001820F2
:100F40008DF8170003208DF8160005A91948FFF742
:100F5000B9FA4FF40060ADF8140004208DF81700C2
:100F600005A91448FFF7AEFA01940020ADF8080077
:100F7000ADF80A00ADF80C00ADF810000C20ADF88B
:100F80000E0001A90C48FFF719FF01210A48FFF7DD
:100F9000ACFE012240F225510748FFF7E9FE01228D
:100FA00040F224410448FFF7E3FE00F007F806B0E2
:100FB00010BD0000000C01400048004008B527208B
:100FC0008DF8000001208DF801008DF802008DF8E9
:100FD00003006846FFF798FB08BD70B504460D4650
:100FE00003E014F8010B00F007F8281EA5F1010139
:100FF000CDB2F6D170BD000010B5044621460548BB
:10100000FFF788FF00BF40210248FFF77AFE002863
:10101000F9D010BD0048004010B5044603E014F8B4
:10102000010BFFF7E9FF20780028F8D110BD000080
:101030000FB4054B10B503A9044A029800F02CF830
:1010400010BC5DF814FB0000951200082800002079
:101050000FB4084B10B504A902AA039800F01CF8BD
:10106000044602A9002000F0F3F8204610BC5DF809
:1010700014FB00005112000802E008C8121F08C14A
:10108000002AFAD170477047002001E001C1121F09
:10109000002AFBD1704700002DE9FF4F8BB09A4624
:1010A0000F460546002606E025280BD052460D992E
:1010B00090476D1C761C28780028F5D10FB030467B
:1010C000BDE8F08F0024A0460122604900E00443FF
:1010D00015F8013F203B02FA03F00842F7D12878C7
:1010E0002E2817D115F8010F44F004042A280ED039
:1010F0006FF02F022878A0F1300109290AD808EBF7
:10110000880102EB410100EB01086D1CF2E757F882
:10111000048B6D1C287869283ED006DC0028CDD0D1
:1011200063280BD0642804D136E0732810D07528CA
:101130004BD052460D999047761C85E017F8040B6A
:101140008DF8000000208DF80100E946012003E041
:1011500057F8049B4FF0FF3061074FF0000401D4B3
:101160000AE0641C44450DDA8442FADB19F80410E5
:101170000029F6D106E0641C8442FCDB19F8041057
:101180000029F8D1264404E019F8010B52460D99C4
:101190009047641EF8D257E001CF4FF00A0B0028A9
:1011A00002DA40422D2102E0210504D52B218DF8E1
:1011B0002410012103E0E10705D02021F7E70DF11C
:1011C000200908910CE00021F9E701CF4FF00A0B4C
:1011D000F9E75946FEF7F3FF01F1300209F8012D56
:1011E0000028F6D1ADEB090000F1200B600701D417
:1011F0004FF00108D84502DDA8EB0B0000E000200D
:101200008046002406E009A85246005D0D999047EB
:10121000641C761C08988442F5DB04E030205246BA
:101220000D999047761CB8F10001A8F10108F5DC92
:1012300005E019F8010B52460D999047761CBBF159
:101240000001ABF1010BF4DC6D1C34E7092801004F
:101250000A68531C0B6010707047014642F2283236
:101260004A434FF0E0235A6101221A6100229A6139
:1012700000BF4FF0E022106900F001021AB100F443
:101280008032002AF5D000224FF0E0231A619A61E3
:101290007047000070B504460D46E1B20548FFF7FF
:1012A00039FE00BF80210348FFF72BFD0028F9D04D
:1012B000204670BD003801404FF4A060FFF75CFA93
:1012C0004FF4E130FFF72CFE4FF4E130FFF7E2FD81
:1012D000FFF788F941F61F414EF65F20FFF78AFCC1
:1012E0001DE04FF480710E48FEF745FFC8210D4800
:1012F000FEF741FF00230CA20DA10A4800F0DCF824
:101300000E490880084601780648FFF766FE40F25D
:10131000DC50FFF7A2FF40F2DC50FFF79EFFE0E752
:10132000F40100202C00002034352E330000000092
:101330002F6D7174742F74657374000000000020A9
:101340002DE9FF5F05468B465846FEF731FF1FFA31
:1013500080F90298FEF72CFF87B20398FEF728FF6A
:101360001FFA80F809F10E001FFA80FA002F04DD41
:101370000AF1020038441FFA80FAB8F1000F04DDC8
:101380000AF1020040441FFA80FA10202870AAF1E6
:10139000020068700224BAF17F0F02DD0120A870FC
:1013A000032400222046611C8CB22A5404222046C9
:1013B000611C8CB22A544D222046611C8CB22A54E6
:1013C00051222046611C8CB22A5454222046611CB2
:1013D0008CB22A542046611C8CB22A540422204626
:1013E000611C8CB22A54C2222046611C8CB22A5441
:1013F00000222046611C8CB22A543C222046611CEB
:101400008CB22A5409F47F4002122046611C8CB22F
:101410002A542046611C8CB205F80090002605E095
:101420001BF80600A1196854701C86B24E45F7DB04
:1014300004EB090084B2002F16DD07F47F4002128E
:101440002046611C8CB22A542046611C8CB22F5459
:10145000002605E00298805DA1196854701C86B2D0
:10146000BE42F7DBE01984B2B8F1000F18DD08F4D2
:101470007F4002122046611C8CB22A542046611C17
:101480008CB205F80080002605E00398805DA11964
:101490006854701C86B24645F7DB04EB080084B242
:1014A000204604B0BDE8F09F0146C020087000202F
:1014B00048700220704700002DE9F05F054689461C
:1014C00092469B464846FEF773FE87B25046FEF7AB
:1014D0006FFE1FFA80F8002430222146641C6A54F3
:1014E000BBF1000F07D0381D4044C2B22046611C3A
:1014F0008CB22A5406E0B81C4044C2B22046611C9B
:101500008CB22A5407F47F4002122046611C8CB230
:101510002A542046611C8CB22F54002605E019F88D
:101520000600A1196854701C86B2BE42F7DBE019B0
:1015300084B2BBF1000F13D01148008800F47F4043
:1015400002122046611C8CB22A540D4802782046B3
:10155000611C8CB22A540A480088401C0849088043
:10156000002605E01AF80600A1196854701C86B21E
:101570004645F7DB04EB080084B22046BDE8F09F47
:10158000020000202DE9F04705468846924699461C
:101590004046FEF70DFE86B2002424480088401C19
:1015A00022490880B9F1000F05D082222046611C33
:1015B0008CB22A5404E0A2222046611C8CB22A5428
:1015C000701DC2B22046611C8CB22A541748008894
:1015D00000F47F4002122046611C8CB22A5413484A
:1015E00002782046611C8CB22A5406F47F40021215
:1015F0002046611C8CB22A542046611C8CB22E54A9
:10160000002705E018F80700E1196854781C87B234
:10161000B742F7DBA01984B2B9F1000F03D005F887
:1016200004A0601C84B22046BDE8F08706000020BC
:10163000200200009003000058160008000000205F
:101640002C00000078100008841600082C000020F0
:10165000CC06000088100008000000000000000018
:10166000000000000000C0000000000000010203B4
:10167000040102030406070809020406080000002A
:041680000000000066
:0400000508000131BD
:00000001FF
