:020000040800F2
:10000000200600204501000851050008EF04000803
:100010004D0500084D020008290C000800000000F2
:10002000000000000000000000000000F1060008D1
:10003000BD03000800000000D90500086D09000894
:100040005F0100085F0100085F0100085F01000810
:100050005F0100085F0100085F0100085F01000800
:100060005F0100085F0100085F0100085F010008F0
:100070005F0100085F0100085F0100085F010008E0
:100080005F0100085F0100085F0100085F010008D0
:100090005F0100085F0100085F0100085F010008C0
:1000A0005F0100085F0100085F0100085F010008B0
:1000B0005F0100085F0100085F0100085F010008A0
:1000C0005F0100085F0100085F0100085F01000890
:1000D0005F0100085F0100085F010008D109000806
:1000E0005F0100085F0100085F0100085F01000870
:1000F0005F0100085F0100085F0100085F01000860
:100100005F0100085F0100085F0100085F0100084F
:100110005F0100085F0100085F0100085F0100083F
:100120005F0100085F0100085F0100085F0100082F
:10013000DFF80CD000F052F8004800473D110008ED
:10014000200600200648804706480047FEE7FEE7F5
:10015000FEE7FEE7FEE7FEE7FEE7FEE7FEE7FEE777
:100160007109000831010008D2B201E000F8012B4A
:10017000491EFBD270470022F6E710B513460A4627
:1001800004461946FFF7F0FF204610BD30B505467E
:100190002A460B4612F8010B13F8014B08B1A04296
:1001A000F8D01CB1002802D06D1CF1E7284630BD04
:1001B00030B50B46014600202022012409E021FA37
:1001C00002F59D4205D303FA02F5491B04FA02F534
:1001D0002844151EA2F10102F1DC30BD064C074D8A
:1001E00006E0E06840F0010394E807009847103407
:1001F000AC42F6D3FFF7A0FF98110008B811000831
:1002000070B505460E4614464FF480710E48FFF750
:10021000B2FF284600F0B8FD0A2094FBF0F084B24B
:1002200002E00A2000F0D1FE31460748FFF7AEFF9A
:1002300020B9201EA4F101018CB2F2D10CB1012031
:1002400070BD0020FCE700001C01002000BFFEE79D
:1002500038B500244FF480712F48FFF78CFF2FA092
:1002600000F092FD4FF4487000F0AFFE2EA000F0B9
:100270008BFD322000F0A9FE2BA000F085FD32207E
:1002800000F0A3FE54B94FF4FA7228A128A0FFF79A
:10029000B7FF10B1601CC4B200E00024012C1ED1D5
:1002A0004FF4FA7000F091FE21022348FFF763FF3C
:1002B0004FF4FA5021A325A225A100901E4800F07A
:1002C0007FFD1D4800F060FD4FF4FA5227A11A4847
:1002D000FFF796FF10B1601CC4B200E00024022CAE
:1002E00009D1C82211A123A0FFF78AFF10B1601C19
:1002F000C4B200E00024032C0CD1C82221A122A00A
:10030000FFF77EFF18B124A000F04AFD02E026A00E
:1003100000F046FD38BD00001C01002041542B5266
:1003200053540D0A000000002B2B2B004F4B0000F4
:10033000415445300D0A00001C0000203130362E9B
:1003400035342E34372E3132000000005443500033
:1003500041542B43495053544152543D222573225A
:100360002C222573222C25640D0A0000434F4E4E8B
:100370004543540041542B4349504D4F44453D3172
:100380000D0A00003E00000041542B4349505345E4
:100390004E440D0A000000005374617274205365CE
:1003A0006E64210D0A00000053746172742053655D
:1003B0006E64204552524F52210D0A0070472DE9BC
:1003C000F0410246002500260020002300240027DB
:1003D00091F803C00CF00F0591F803C00CF0100C5D
:1003E000BCF1000F03D091F802C04CEA050591F86A
:1003F00000C0BCF1000F31D0146800202BE04FF09A
:10040000010C0CFA00F3B1F800C00CEA03069E429E
:1004100020D183004FF00F0C0CFA03F7BC4305FA10
:1004200003FC4CEA040491F803C0BCF1280F06D188
:100430004FF0010C0CFA00FCC2F814C00AE091F86D
:1004400003C0BCF1480F05D14FF0010C0CFA00FCC1
:10045000C2F810C0401C0828D1D31460B1F800C005
:10046000BCF1FF0F34DD546800202EE000F1080CD1
:100470004FF0010808FA0CF3B1F800C00CEA0306CB
:100480009E4221D183004FF00F0C0CFA03F7BC43BE
:1004900005FA03FC4CEA040491F803C0BCF1280FF0
:1004A00005D100F1080C08FA0CF8C2F8148091F894
:1004B00003C0BCF1480F07D100F1080C4FF0010850
:1004C00008FA0CF8C2F81080401C0828CED35460FB
:1004D000BDE8F0810246002093680B400BB101207B
:1004E00000E000207047416170470161704700BF24
:1004F000FEE7000008B50121482000F07FF8102039
:100500008DF803002020ADF8000003208DF80200D4
:1005100069460C48FFF753FF20210A48FFF7E5FF23
:1005200010208DF803002020ADF8000003208DF886
:10053000020069460448FFF742FF20210248FFF706
:10054000D4FF08BD00180140000C014000BFFEE7C9
:100550007047000070B5002100230F22C47804B357
:10056000154C246804F4E064C4F5E064210AC1F188
:100570000403CA40447804FA03F184781440214308
:1005800009010E4C0678A155047804F01F050124DA
:10059000AC4005786D11AD0005F1E025C5F80041CE
:1005A00009E0047804F01F050124AC40044D0678EE
:1005B000761145F8264070BD0CED00E000E400E047
:1005C00080E100E002490143024A116070470000E7
:1005D0000000FA050CED00E07047000029B1064A62
:1005E000D2690243044BDA6104E0034AD2698243D0
:1005F000014BDA61704700000010024029B1064A41
:1006000092690243044B9A6104E0034A926982436F
:10061000014B9A61704700000010024030B5002184
:100620000022002400232D4D6D6805F00C0121B13E
:10063000042905D0082923D105E0294D056022E0D1
:10064000274D05601FE0254D6D6805F47012234DA0
:100650006D6805F48034022505EB92421CB9214DEA
:10066000554305600BE01D4D6D6805F400351DB167
:100670001C4D5543056002E0194D5543056002E0ED
:10068000174D056000BF00BF144D6D6805F0F00107
:100690000909154D6B5C0568DD4045600F4D6D68BF
:1006A00005F4E061090A104D6B5C4568DD4085602A
:1006B0000A4D6D6805F46051C90A0B4D6B5C4568C5
:1006C000DD40C560054D6D6805F44041890B074D5F
:1006D0006B5CC568B5FBF3F5056130BD00100240E9
:1006E00000127A0000093D000400002014000020E0
:1006F000704710B500F002F810BD00000CB50020E6
:10070000019000903348006840F48030314908601F
:1007100000BF3048006800F4003000900198401C91
:100720000190009818B90198B0F5A06FF1D129484F
:10073000006800F4003010B10120009001E00020BA
:1007400000900098012843D12348006840F0100031
:10075000214908600846006820F003000860084648
:10076000006840F0020008601A4840681949486073
:100770000846406848600846406840F48060486029
:100780000846406820F47C1048600846406840F401
:10079000E81048600846006840F08070086000BFBC
:1007A0000C48006800F000700028F9D00948406843
:1007B00020F00300074948600846406840F0020006
:1007C000486000BF0348406800F00C000828F9D1D9
:1007D0000CBD0000001002400020024010B50024B3
:1007E00038A000F0D1FA322000F0EFFB35A000F085
:1007F000CBFA322000F0E9FB4FF4FA7000F0E5FB91
:1008000031A000F0C1FA4FF4487000F0DEFB5CB993
:100810004FF448722FA131A0FFF7F2FC012802D15A
:10082000601CC4B200E00024012C0BD14FF4FA721A
:100830002EA12FA0FFF7E4FC012802D1601CC4B256
:1008400000E00024022C0AD1C82228A12AA0FFF728
:10085000D7FC012802D1601CC4B200E00024032CA4
:100860000AD1C82221A129A0FFF7CAFC012802D180
:10087000601CC4B200E00024042C0BD14FF4FA72C7
:100880001AA127A0FFF7BCFC012802D1601CC4B24A
:1008900000E000244FF480712648FFF76CFC00BF95
:1008A00025A12448FFF772FC0028F9D0202129480F
:1008B000FFF719FE052C04D1C8220CA126A0FFF7D2
:1008C0009FFC10BD2B2B2B0041542B5253540D0A6F
:1008D00000000000726561647900000041542B52F1
:1008E0004553544F52450D0A000000004F4B000085
:1008F000415445300D0A000041542B43574D4F449D
:10090000455F4445463D310D0A00000041542B43EC
:10091000574155544F434F4E4E3D310D0A00000094
:1009200041542B43575354415254534D4152543D1B
:10093000310D0A001C010020736D617274636F6ECB
:1009400066696720636F6E6E65637465642077699E
:10095000666900000018014041542B435753544F1F
:1009600050534D4152540D0A0000000070470000E2
:1009700010B51348006840F00100114908600846AE
:100980004068104908400E494860084600680E4912
:1009900008400B4908600846006820F48020086081
:1009A0000846406820F4FE0048604FF41F0088604D
:1009B000FFF79FFE4FF000600449086010BD000083
:1009C000001002400000FFF8FFFFF6FE08ED00E017
:1009D00010B540F225511D4800F066F800B3012023
:1009E0001B4908701948001D00881A4908700846FC
:1009F00000781949088019480078FF2802DB002098
:100A00001649087013480178144802780078401C91
:100A1000124B187012488154184600781946087015
:100A200040F22441094800F03FF868B10748001D32
:100A30000088084908700548008808700748007851
:100A4000064908700020087010BD000000480040F2
:100A500001000020000000200438014002000020B6
:100A60001C01002001F40072B2F5007F00D100BF2C
:100A7000CA430280704721B1828942F400528281C8
:100A800004E082894DF6FF731A4082817047024666
:100A90000020B1F5007F00D100BF13880B400BB1DF
:100AA000012000E00020704770B5024600240023BA
:100AB0000025002040F66A16B14200D100BFC1F304
:100AC000421501F01F03012606FA03F3012D02D19E
:100AD0009689334006E0022D02D1168A334001E0A8
:100AE000968A33400C12012606FA04F41688344024
:100AF00013B10CB1012000E0002070BDF0B5034639
:100B0000002400260025002040F66A17B94200D1D3
:100B100000BF1846C1F3421401F01F06012707FA6F
:100B200006F5012C01D10C3004E0022C01D110306B
:100B300000E014301AB107682F43076002E007682D
:100B4000AF430760F0BD00002DE9F04786B00546D1
:100B50000E460024A24600BFA1460027B08900B17E
:100B600000BF2F462C8A4CF6FF700440F0880443E7
:100B70002C82AC894EF6F3100440B08831890843CA
:100B8000718908430443AC81AC8A4FF6FF400440AE
:100B9000B0890443AC8201A8FFF740FD1F4887429B
:100BA00002D1DDF810A001E0DDF80CA0A88900F466
:100BB000004040B10AEBCA0000EB0A10316849005E
:100BC000B0FBF1F807E00AEBCA0000EB0A1031684D
:100BD0008900B0FBF1F86420B8FBF0F004012009B3
:100BE000642101FB1089A88900F4004040B1322043
:100BF00000EBC900B0FBF1F000F00700044308E08F
:100C0000322000EB09106421B0FBF1F000F00F007E
:100C100004432C8106B0BDE8F08700000038014095
:100C2000C1F308028280704700BFFEE710B586B0AE
:100C30000446012144F20400FFF7E0FC4FF4007089
:100C4000ADF8140003208DF8160018208DF8170059
:100C500005A91448FFF7B3FB4FF48060ADF814000A
:100C600004208DF8170005A90E48FFF7A8FB019492
:100C70000020ADF80800ADF80A00ADF80C00ADF8A2
:100C800010000C20ADF80E0001A90748FFF75CFF2B
:100C900001210548FFF7EFFE40210348FFF7E2FE80
:100CA00006B010BD000801400038014010B586B004
:100CB000044601210820FFF7A1FC01218804FFF769
:100CC0008DFC4FF48060ADF8140018208DF81700EB
:100CD00003208DF8160005A91948FFF770FB4FF4A3
:100CE0000060ADF8140004208DF8170005A9144821
:100CF000FFF765FB01940020ADF80800ADF80A008D
:100D0000ADF80C00ADF810000C20ADF80E0001A9F4
:100D10000C48FFF719FF01210A48FFF7ACFE01223A
:100D200040F225510748FFF7E9FE012240F2244135
:100D30000448FFF7E3FE00F007F806B010BD00001E
:100D4000000C01400048004008B527208DF8000045
:100D500001208DF801008DF802008DF8030068462F
:100D6000FFF7F8FB08BD000010B504462146054812
:100D7000FFF756FF00BF40210248FFF788FE00281A
:100D8000F9D010BD0048004010B5044603E014F847
:100D9000010BFFF7E9FF20780028F8D110BD000013
:100DA0000FB4054B10B503A9044A029800F02CF8C3
:100DB00010BC5DF814FB00000510000818000020AE
:100DC0000FB4084B10B504A902AA039800F01CF850
:100DD000044602A9002000F0F3F8204610BC5DF89C
:100DE00014FB0000C10F000802E008C8121F08C170
:100DF000002AFAD170477047002001E001C1121F9C
:100E0000002AFBD1704700002DE9FF4F8BB09A46B6
:100E10000F460546002606E025280BD052460D99C0
:100E200090476D1C761C28780028F5D10FB030460D
:100E3000BDE8F08F0024A0460122604900E0044391
:100E400015F8013F203B02FA03F00842F7D1287859
:100E50002E2817D115F8010F44F004042A280ED0CB
:100E60006FF02F022878A0F1300109290AD808EB89
:100E7000880102EB410100EB01086D1CF2E757F815
:100E8000048B6D1C287869283ED006DC0028CDD064
:100E900063280BD0642804D136E0732810D075285D
:100EA0004BD052460D999047761C85E017F8040BFD
:100EB0008DF8000000208DF80100E946012003E0D4
:100EC00057F8049B4FF0FF3061074FF0000401D446
:100ED0000AE0641C44450DDA8442FADB19F8041078
:100EE0000029F6D106E0641C8442FCDB19F80410EA
:100EF0000029F8D1264404E019F8010B52460D9957
:100F00009047641EF8D257E001CF4FF00A0B00283B
:100F100002DA40422D2102E0210504D52B218DF873
:100F20002410012103E0E10705D02021F7E70DF1AE
:100F3000200908910CE00021F9E701CF4FF00A0BDE
:100F4000F9E75946FFF734F901F1300209F8012DAC
:100F50000028F6D1ADEB090000F1200B600701D4A9
:100F60004FF00108D84502DDA8EB0B0000E000209F
:100F70008046002406E009A85246005D0D9990477E
:100F8000641C761C08988442F5DB04E0302052464D
:100F90000D999047761CB8F10001A8F10108F5DC25
:100FA00005E019F8010B52460D999047761CBBF1EC
:100FB0000001ABF1010BF4DC6D1C34E709280100E2
:100FC0000A68531C0B6010707047014642F22832C9
:100FD0004A434FF0E0235A6101221A6100229A61CC
:100FE00000BF4FF0E022106900F001021AB100F4D6
:100FF0008032002AF5D000224FF0E0231A619A6176
:101000007047000070B504460D46E1B20548FFF791
:1010100007FE00BF80210348FFF739FD0028F9D003
:10102000204670BD0038014008B5FFF7A1FC012142
:101030004420FFF7E3FA28208DF803000120ADF8E3
:10104000000003208DF8020069460848FFF7B7F951
:1010500048208DF803001C20ADF8000003208DF817
:10106000020069460248FFF7AAF908BD00080140DE
:101070000018014010B50446012C01D12C4908701C
:101080002B480078002836D010212A48FFF722FA92
:1010900078B108212748FFF71DFA50B104212548EF
:1010A000FFF718FA28B101212348FFF713FA0128A6
:1010B00021D10A20FFF789FF00201D490870102167
:1010C0001C48FFF707FA08B9022010BD082119488B
:1010D000FFF700FA08B90320F7E704211548FFF7E6
:1010E000F9F908B90420F0E701211348FFF7F2F9F4
:1010F00001281AD1E9E710210E48FFF7EBF9012882
:1011000013D108210B48FFF7E5F901280DD104217F
:101110000848FFF7DFF9012807D101210648FFF74A
:10112000D9F910B90120024908700020CDE700006C
:101130000300002000180140000801404FF4A060A7
:10114000FFF740FA4FF4E130FFF770FD4FF4E13064
:10115000FFF7ACFDFFF768FFFFF7CCF9C820FFF7FA
:1011600034FFFFF775F80DE00020FFF783FF01283B
:1011700001D1FFF733FB4FF47A70FFF726FF02A08F
:10118000FFF702FEF0E7000048656C6C6F2C776F8C
:101190007264210D0A000000B81100080000002050
:1011A0001C000000E80D0008D41100081C000020FD
:1011B00004060000F80D0008000000010000000017
:1011C00001020304010203040607080902040608D9
:0411D000000000001B
:0400000508000131BD
:00000001FF
