:020000040800F2
:100000001806002045010008450600083D060008C6
:100010004106000801020008510C00080000000021
:10002000000000000000000000000000250800089B
:100030009D030008000000000D0700089509000856
:100040005F0100085F0100085F0100085F01000810
:100050005F0100085F0100085F0100085F01000800
:100060005F0100085F0100085F0100085F010008F0
:100070005F0100085F0100085F0100085F010008E0
:100080005F0100085F0100085F0100085F010008D0
:100090005F0100085F0100085F0100085F010008C0
:1000A0005F0100085F0100085F0100085F010008B0
:1000B0005F0100085F0100085F0100085F010008A0
:1000C0005F0100085F0100085F0100085F01000890
:1000D0005F0100085F0100085F010008F9090008DE
:1000E0005F0100085F0100085F0100085F01000870
:1000F0005F0100085F0100085F0100085F01000860
:100100005F0100085F0100085F0100085F0100084F
:100110005F0100085F0100085F0100085F0100083F
:100120005F0100085F0100085F0100085F0100082F
:10013000DFF80CD000F052F8004800470D1000081E
:10014000180600200648804706480047FEE7FEE7FD
:10015000FEE7FEE7FEE7FEE7FEE7FEE7FEE7FEE777
:100160009909000831010008D2B201E000F8012B22
:10017000491EFBD270470022F6E710B513460A4627
:1001800004461946FFF7F0FF204610BD30B505467E
:100190002A460B4612F8010B13F8014B08B1A04296
:1001A000F8D01CB1002802D06D1CF1E7284630BD04
:1001B00030B50B46014600202022012409E021FA37
:1001C00002F59D4205D303FA02F5491B04FA02F534
:1001D0002844151EA2F10102F1DC30BD064C074D8A
:1001E00006E0E06840F0010394E807009847103407
:1001F000AC42F6D3FFF7A0FF5010000870100008C3
:1002000000BFFEE710B505240FE04FF480710A48E7
:10021000FFF7B1FF09A000F0CBFDC82209A10648F5
:1002200000F066F908B1012010BD201EA4F1010103
:10023000CCB2EAD100BFF7E71801002041540D0A03
:10024000000000004F4B000010B54FF480710848CB
:10025000FFF791FF07A000F0ABFD4FF4FA7207A182
:10026000034800F045F908B9002010BD0120FCE763
:1002700018010020415445300D0A00004F4B00008A
:1002800010B54FF480710B48FFF775FF0AA30EA25B
:1002900011A1184800F098FD164800F089FD4FF4B0
:1002A000FA5215A1034800F023F908B1012010BD4E
:1002B0000020FCE7180100206C696D75746F6E6793
:1002C0004071712E636F6D0054656E64615F4132E1
:1002D000324143300000000041542B43574A415003
:1002E0005F4355523D222573222C222573220D0A8D
:1002F00000000000180000204F4B000008B516A0B9
:1003000000F056FD322000F064FE13A000F050FD16
:10031000322000F05EFE4FF4FA7000F05AFE4FF407
:1003200080710E48FFF727FF4FF4FA500CA310A27C
:1003300010A10090164800F047FD154800F038FD68
:100340004FF4FA5213A1054800F0D2F808B1012089
:1003500008BD0020FCE700002B2B2B00180100201B
:100360003130362E35342E34372E31320000000035
:100370005443500041542B43495053544152543D2F
:10038000222573222C222573222C25640D0A0000BD
:1003900018000020434F4E4E454354007047000064
:1003A00010B54FF480714B48FFF7E5FE4FF48071B4
:1003B0004948FFF7E0FE49A000F0FAFC322000F0C7
:1003C00008FE46A000F0F4FC322000F002FE4FF4DC
:1003D000FA7000F0FEFD42A000F0EAFC4FF4487015
:1003E00000F0F7FD4148007860B9FFF70BFF0128E6
:1003F00005D13E480078401C3C49087002E00020CE
:100400003A4908703948007801280CD1FFF71CFFE1
:10041000012805D135480078401C3449087002E0B5
:100420000020324908703148007802280CD100F0D1
:100430008FFA012805D12D480078401C2B490870FF
:1004400002E00020294908702848007803280CD1D0
:10045000FFF716FF012805D124480078401C2349E6
:10046000087002E000202149087020480078042824
:100470000CD1FFF743FF012805D11C480078401C30
:100480001A49087002E000201849087017480078DF
:1004900005280CD100F03CFA012805D1134800785A
:1004A000401C1249087002E00020104908700F48F3
:1004B000007806280CD100F009F9012805D10B4875
:1004C0000078401C0949087002E0002007490870C4
:1004D00010BD000018010020180000202B2B2B005D
:1004E00041542B5253540D0A00000000000000201C
:1004F00070B505460E4614460A2094FBF0F084B20F
:1005000002E00A2000F065FD31462846FFF73EFE76
:1005100020B9201EA4F101018CB2F2D10CB101204E
:1005200070BD0020FCE72DE9F041024600250026C1
:10053000002000230024002791F803C00CF00F05D1
:1005400091F803C00CF0100CBCF1000F03D091F82F
:1005500002C04CEA050591F800C0BCF1000F31D093
:10056000146800202BE04FF0010C0CFA00F3B1F8F6
:1005700000C00CEA03069E4220D183004FF00F0C0E
:100580000CFA03F7BC4305FA03FC4CEA040491F8A7
:1005900003C0BCF1280F06D14FF0010C0CFA00FC8F
:1005A000C2F814C00AE091F803C0BCF1480F05D1AD
:1005B0004FF0010C0CFA00FCC2F810C0401C0828D7
:1005C000D1D31460B1F800C0BCF1FF0F34DD546822
:1005D00000202EE000F1080C4FF0010808FA0CF39F
:1005E000B1F800C00CEA03069E4221D183004FF00F
:1005F0000F0C0CFA03F7BC4305FA03FC4CEA0404A5
:1006000091F803C0BCF1280F05D100F1080C08FADD
:100610000CF8C2F8148091F803C0BCF1480F07D160
:1006200000F1080C4FF0010808FA0CF8C2F810802D
:10063000401C0828CED35460BDE8F08100BFFEE71F
:1006400000BFFEE77047000070B5002100230F22B5
:10065000C47804B3154C246804F4E064C4F5E06481
:10066000210AC1F10403CA40447804FA03F18478F2
:100670001440214309010E4C0678A155047804F07A
:100680001F050124AC4005786D11AD0005F1E02592
:10069000C5F8004109E0047804F01F050124AC40CE
:1006A000044D0678761145F8264070BD0CED00E04B
:1006B00000E400E080E100E002490143024A1160E9
:1006C000704700000000FA050CED00E010B54FF493
:1006D00080710848FFF74FFD07A000F069FBC822B2
:1006E00009A10448FFF704FF08B1012010BD002054
:1006F000FCE700001801002041542B4349505345AA
:100700004E440D0A000000003E000000704700004B
:1007100029B1064AD2690243044BDA6104E0034A74
:10072000D2698243014BDA61704700000010024039
:1007300029B1064A92690243044B9A6104E0034AD4
:1007400092698243014B9A61704700000010024099
:1007500030B500210022002400232D4D6D6805F0E6
:100760000C0121B1042905D0082923D105E0294D28
:10077000056022E0274D05601FE0254D6D6805F4FA
:100780007012234D6D6805F48034022505EB92420A
:100790001CB9214D554305600BE01D4D6D6805F4F6
:1007A00000351DB11C4D5543056002E0194D554300
:1007B000056002E0174D056000BF00BF144D6D6875
:1007C00005F0F0010909154D6B5C0568DD404560D9
:1007D0000F4D6D6805F4E061090A104D6B5C4568CA
:1007E000DD4085600A4D6D6805F46051C90A0B4D06
:1007F0006B5C4568DD40C560054D6D6805F44041A2
:10080000890B074D6B5CC568B5FBF3F5056130BD21
:100810000010024000127A0000093D000400002090
:1008200014000020704710B500F002F810BD000061
:100830000CB50020019000903348006840F48030EF
:100840003149086000BF3048006800F40030009073
:100850000198401C0190009818B90198B0F5A06F5C
:10086000F1D12948006800F4003010B10120009057
:1008700001E0002000900098012843D1234800683F
:1008800040F01000214908600846006820F003008D
:1008900008600846006840F0020008601A48406896
:1008A000194948600846406848600846406840F476
:1008B000806048600846406820F47C104860084624
:1008C000406840F4E81048600846006840F08070D6
:1008D000086000BF0C48006800F000700028F9D0E4
:1008E0000948406820F0030007494860084640680E
:1008F00040F00200486000BF0348406800F00C0070
:100900000828F9D10CBD0000001002400020024070
:1009100010B54FF480710848FFF72DFC07A000F0D8
:1009200047FAC82209A10448FFF7E2FD08B10120F7
:1009300010BD0020FCE700001801002041542B43AB
:1009400049504D4F44453D310D0A00004F4B0000CA
:1009500010B54FF480710848FFF70DFC07A000F0B8
:1009600027FAC8220AA10448FFF7C2FD08B10120F6
:1009700010BD0020FCE700001801002041542B436B
:10098000574D4F44455F4355523D310D0A0000001D
:100990004F4B00007047000010B51348006840F04E
:1009A00001001149086008464068104908400E4996
:1009B0004860084600680E4908400B490860084630
:1009C000006820F4802008600846406820F4FE009B
:1009D00048604FF41F008860FFF725FF4FF000606C
:1009E0000449086010BD0000001002400000FFF83C
:1009F000FFFFF6FE08ED00E010B540F225511D485E
:100A000000F066F800B301201B4908701948001D6A
:100A100000881A4908700846007819490880194862
:100A20000078FF2802DB002016490870134801787F
:100A3000144802780078401C124B187012488154F8
:100A4000184600781946087040F22441094800F021
:100A50003FF868B10748001D00880849087005483C
:100A60000088087007480078064908700020087060
:100A700010BD0000004800400200002001000020DE
:100A800004380140030000201801002001F4007226
:100A9000B2F5007F00D100BFCA430280704721B188
:100AA000828942F40052828104E082894DF6FF730C
:100AB0001A408281704702460020B1F5007F00D1C4
:100AC00000BF13880B400BB1012000E000207047ED
:100AD00070B50246002400230025002040F66A1667
:100AE000B14200D100BFC1F3421501F01F0301263E
:100AF00006FA03F3012D02D19689334006E0022D58
:100B000002D1168A334001E0968A33400C12012646
:100B100006FA04F41688344013B10CB1012000E049
:100B2000002070BDF0B503460024002600250020FB
:100B300040F66A17B94200D100BF1846C1F342140B
:100B400001F01F06012707FA06F5012C01D10C3030
:100B500004E0022C01D1103000E014301AB1076813
:100B60002F43076002E00768AF430760F0BD000055
:100B70002DE9F04786B005460E460024A24600BF88
:100B8000A1460027B08900B100BF2F462C8A4CF641
:100B9000FF700440F08804432C82AC894EF6F310B9
:100BA0000440B08831890843718908430443AC810B
:100BB000AC8A4FF6FF400440B0890443AC8201A8E0
:100BC000FFF7C6FD1F48874202D1DDF810A001E003
:100BD000DDF80CA0A88900F4004040B10AEBCA007F
:100BE00000EB0A1031684900B0FBF1F807E00AEBAE
:100BF000CA0000EB0A1031688900B0FBF1F86420EC
:100C0000B8FBF0F004012009642101FB1089A889D8
:100C100000F4004040B1322000EBC900B0FBF1F01D
:100C200000F00700044308E0322000EB09106421C3
:100C3000B0FBF1F000F00F0004432C8106B0BDE8DA
:100C4000F087000000380140C1F30802828070473D
:100C500000BFFEE710B586B00446012144F204004F
:100C6000FFF766FD4FF40070ADF8140003208DF817
:100C7000160018208DF8170005A91448FFF753FC3B
:100C80004FF48060ADF8140004208DF8170005A91A
:100C90000E48FFF748FC01940020ADF80800ADF8BD
:100CA0000A00ADF80C00ADF810000C20ADF80E00F5
:100CB00001A90748FFF75CFF01210548FFF7EFFE98
:100CC00040210348FFF7E2FE06B010BD00080140D6
:100CD0000038014010B586B0044601210820FFF716
:100CE00027FD01218804FFF713FD4FF48060ADF864
:100CF000140018208DF8170003208DF8160005A9A0
:100D00001948FFF710FC4FF40060ADF81400042000
:100D10008DF8170005A91448FFF705FC0194002081
:100D2000ADF80800ADF80A00ADF80C00ADF8100001
:100D30000C20ADF80E0001A90C48FFF719FF0121A6
:100D40000A48FFF7ACFE012240F225510748FFF7A1
:100D5000E9FE012240F224410448FFF7E3FE00F0DF
:100D600007F806B010BD0000000C0140004800402C
:100D700008B527208DF8000001208DF801008DF8BE
:100D800002008DF803006846FFF75EFC08BD000016
:100D900010B5044621460548FFF756FF00BF402125
:100DA0000248FFF788FE0028F9D010BD0048004037
:100DB00010B5044603E014F8010BFFF7E9FF2078B3
:100DC0000028F8D110BD00000FB4084B10B504A9DD
:100DD00002AA039800F01CF8044602A9002000F0C3
:100DE000F3F8204610BC5DF814FB0000C90F0008A2
:100DF00002E008C8121F08C1002AFAD170477047E4
:100E0000002001E001C1121F002AFBD17047000041
:100E10002DE9FF4F8BB09A460F460546002606E0A7
:100E200025280BD052460D9990476D1C761C2878CA
:100E30000028F5D10FB03046BDE8F08F0024A04661
:100E40000122604900E0044315F8013F203B02FA0B
:100E500003F00842F7D128782E2817D115F8010F92
:100E600044F004042A280ED06FF02F022878A0F155
:100E7000300109290AD808EB880102EB410100EB97
:100E800001086D1CF2E757F8048B6D1C287869285F
:100E90003ED006DC0028CDD063280BD0642804D1D6
:100EA00036E0732810D075284BD052460D999047E4
:100EB000761C85E017F8040B8DF8000000208DF8F3
:100EC0000100E946012003E057F8049B4FF0FF3092
:100ED00061074FF0000401D40AE0641C44450DDAB8
:100EE0008442FADB19F804100029F6D106E0641CEC
:100EF0008442FCDB19F804100029F8D1264404E0F0
:100F000019F8010B52460D999047641EF8D257E02C
:100F100001CF4FF00A0B002802DA40422D2102E0F7
:100F2000210504D52B218DF82410012103E0E107D0
:100F300005D02021F7E70DF1200908910CE00021F0
:100F4000F9E701CF4FF00A0BF9E75946FFF730F9FF
:100F500001F1300209F8012D0028F6D1ADEB0900AE
:100F600000F1200B600701D44FF00108D84502DDE5
:100F7000A8EB0B0000E000208046002406E009A852
:100F80005246005D0D999047641C761C0898844277
:100F9000F5DB04E0302052460D999047761CB8F1FD
:100FA0000001A8F10108F5DC05E019F8010B524633
:100FB0000D999047761CBBF10001ABF1010BF4DCFD
:100FC0006D1C34E7092801000A68531C0B6010707F
:100FD0007047014642F228324A434FF0E0235A61FB
:100FE00001221A6100229A6100BF4FF0E0221069CD
:100FF00000F001021AB100F48032002AF5D000227C
:101000004FF0E0231A619A61704700004FF4A0602E
:10101000FFF752FB4FF4E130FFF71CFE4FF4E130D5
:10102000FFF758FEC820FFF7D4FFFFF7B9F906E035
:101030004FF47A70FFF7CDFF01A0FFF7B9FEF7E795
:1010400048656C6C6F2C776F7264210D0A0000008C
:10105000701000080000002018000000F00D0008CB
:10106000881000081800002000060000000E00088C
:10107000000000000000000001020304010203045C
:08108000060708090204060836
:0400000508000131BD
:00000001FF
