:020000040800F2
:10000000F006002045010008BD0B0008FF050008B0
:10001000B90B00086B020008C513000800000000BF
:10002000000000000000000000000000A10D00081A
:100030007D03000800000000450C00088D0E00083C
:100040005F0100085F0100085F0100085F01000810
:100050005F0100085F0100085F0100085F01000800
:100060005F0100085F0100085F0100085F010008F0
:100070005F0100085F0100085F0100085F010008E0
:100080005F0100085F0100085F0100085F010008D0
:100090005F0100085F0100085F0100085F010008C0
:1000A0005F0100085F0100085F0100085F010008B0
:1000B0005F010008F10E00085F0100085F01000801
:1000C0005F0100085F0100085F0100085F01000890
:1000D0005F0100085F0100085F010008F9100008D7
:1000E0005F0100085F0100085F0100085F01000870
:1000F0005F0100085F0100085F0100085F01000860
:100100005F0100085F0100085F0100085F0100084F
:100110005F0100085F0100085F0100085F0100083F
:100120005F0100085F0100085F0100085F0100082F
:10013000DFF80CD000F06CF800480047E918000820
:10014000F00600200648804706480047FEE7FEE725
:10015000FEE7FEE7FEE7FEE7FEE7FEE7FEE7FEE777
:10016000910E00083101000840EA01039B0703D00B
:1001700009E008C9121F08C0042AFAD203E011F8E6
:10018000013B00F8013B521EF9D27047D2B201E0A8
:1001900000F8012B491EFBD270470022F6E710B58C
:1001A00013460A4604461946FFF7F0FF204610BDE5
:1001B00030B505462A460B4612F8010B13F8014BE1
:1001C00008B1A042F8D01CB1002802D06D1CF1E7A4
:1001D000284630BD421C10F8011B0029FBD1801AB3
:1001E000704730B50B46014600202022012409E06B
:1001F00021FA02F59D4205D303FA02F5491B04FAE0
:1002000002F52844151EA2F10102F1DC30BD000008
:10021000064C074D06E0E06840F0010394E8070053
:1002200098471034AC42F6D3FFF786FFC81A00088F
:10023000E81A000870B505460E4614460A2094FBDD
:10024000F0F084B202E00A2001F020FB314628469B
:10025000FFF7AEFF20B9201EA4F101018CB2F2D14C
:100260000CB1012070BD0020FCE700BFFEE70000DC
:1002700070B504460D464FF480710B48FFF78DFFB3
:100280000AA30EA211A1184801F036F9164801F090
:1002900017F94FF4FA5215A10348FFF7CBFF08B145
:1002A000012070BD0020FCE7EC0100206C696D7539
:1002B000746F6E674071712E636F6D0054656E646C
:1002C000615F4132324143300000000041542B4312
:1002D000574A41505F4355523D222573222C222517
:1002E00073220D0A00000000EC0000204F4B0000BC
:1002F000F8B504460D46164614A001F0E1F8322088
:1003000001F0C4FA11A001F0DBF8322001F0BEFACE
:100310004FF4FA7001F0BAFA4FF480710C48FFF70D
:100320003CFF2B4622460BA11148009601F0E4F851
:100330000F4801F0C5F84FF4FA520EA10448FFF738
:1003400079FF08B10120F8BD0020FCE72B2B2B0022
:10035000EC01002041542B43495053544152543D29
:10036000222573222C222573222C25640D0A0000DD
:10037000EC000020434F4E4E4543540070470000B0
:1003800010B54FF480713648FFF707FF4FF48071C6
:100390003448FFF702FF00F0E1FC4FF48071304871
:1003A000FFF7FBFE30A001F08BF800BFC82230A1A0
:1003B0002B48FFF73FFF0028F8D04FF48071284802
:1003C000FFF7EBFE2BA001F07BF800BF4FF4FA72B1
:1003D00027A12348FFF72EFF0028F7D04FF48071A4
:1003E0001F48FFF7DAFE25A001F06AF800BFC82217
:1003F0001FA11B48FFF71EFF0028F8D000BF24A153
:1004000027A0FFF735FF0028F9D000BF40F25B724C
:1004100027A12BA0FFF76CFF0028F7D04FF48071C5
:100420000F48FFF7BAFE27A001F04AF800BFC82224
:100430000FA10B48FFF7FEFE0028F8D04FF48071A3
:100440000748FFF7AAFE23A001F03AF800BFC82230
:1004500024A10348FFF7EEFE0028F8D010BD0000ED
:10046000EC010020EC00002041540D0A00000000C7
:100470004F4B0000415445300D0A000041542B43BE
:10048000574D4F44455F4355523D310D0A00000022
:100490006C696D75746F6E674071712E636F6D005E
:1004A00054656E64615F41323241433000000000A8
:1004B00033392E39372E39362E31343500000000CD
:1004C0005443500041542B4349504D4F44453D3116
:1004D0000D0A000041542B43495053454E440D0A28
:1004E000000000003E0000002DE9F041024600251A
:1004F0000026002000230024002791F803C00CF000
:100500000F0591F803C00CF0100CBCF1000F03D0E4
:1005100091F802C04CEA050591F800C0BCF1000F4B
:1005200031D0146800202BE04FF0010C0CFA00F3DE
:10053000B1F800C00CEA03069E4220D183004FF0C0
:100540000F0C0CFA03F7BC4305FA03FC4CEA040455
:1005500091F803C0BCF1280F06D14FF0010C0CFA42
:1005600000FCC2F814C00AE091F803C0BCF1480FC7
:1005700005D14FF0010C0CFA00FCC2F810C0401C71
:100580000828D1D31460B1F800C0BCF1FF0F34DDEE
:10059000546800202EE000F1080C4FF0010808FA22
:1005A0000CF3B1F800C00CEA03069E4221D183008F
:1005B0004FF00F0C0CFA03F7BC4305FA03FC4CEAAE
:1005C000040491F803C0BCF1280F05D100F1080C18
:1005D00008FA0CF8C2F8148091F803C0BCF1480F77
:1005E00007D100F1080C4FF0010808FA0CF8C2F826
:1005F0001080401C0828CED35460BDE8F08100BFB5
:10060000FEE730B50246002300BF0846CD1701EBD8
:100610005565ED11A1EBC515ECB2CD1701EB556594
:10062000E911002901DD44F0800418465B1C1454D4
:100630000029EADC184630BD401C802801DA401C45
:100640000AE0B0F5804F01DA801C05E003498842DA
:1006500001DAC01C00E0001D70470000FFFF1F0012
:100660002DE9FE4305460E461446029500200190F2
:10067000009000274FF0FF38204600F0A5F807460D
:100680008146FFF7D9FFB04202DD6FF001088FE02D
:1006900000208DF80400019820F0F0001030019047
:1006A0009DF8041002A801F0A1F939460298FFF75D
:1006B000A8FF029908440290207A042808D13EA19C
:1006C00002A801F07FF9042102A801F08FF907E0E8
:1006D0003BA102A801F076F9032102A801F086F9F6
:1006E00000208DF80000A17E009861F34100009089
:1006F000E07E08B1012100E00021009861F3820052
:1007000000900098C0F3800058B194F83D10009814
:1007100061F3C400009094F83C10009861F3451018
:100720000090206C08B9A06C20B1009820F08000E7
:1007300080300090E06C08B9606D20B1009820F026
:100740004000403000909DF8001002A801F04EF9E2
:10075000218B02A801F050F902A8D4E90423E16832
:1007600001F062F9E07E58B102A8D4E90A23616A77
:1007700001F05AF902A8D4E90D23216B01F054F9D4
:100780000098C0F3C01028B102A8D4E91123216C4D
:1007900001F04AF90098C0F3801028B102A8D4E90A
:1007A0001423E16C01F040F90298A0EB050800BFAA
:1007B0004046BDE8FE8300004D5154540000000047
:1007C0004D5149736470000070B504460025207ACD
:1007D000032801D10C2503E0207A042800D10A2542
:1007E000D4E90412E06800F0DBF9801C0544E07EE7
:1007F00068B1D4E90A12606A00F0D2F9861CD4E923
:100800000D12206B00F0CCF93044801C0544206CA4
:1008100008B9A06C30B1D4E91112206C00F0C0F915
:10082000801C0544E06C08B9606D30B1D4E9141245
:10083000E06C00F0B5F9801C0544284670BD2DE938
:10084000F04F87B005460F4690461C46DDE915B6C9
:10085000DDE9109A0695002005900490039000961B
:10086000204612A90EC900F042F804900290FFF74A
:10087000E3FEB84203DD6FF00100039033E005981A
:1008800020F0F00030300590059868F3C300059023
:10089000059864F342000590059869F300000590FF
:1008A0009DF8141006A801F0A1F804990698FFF726
:1008B000A8FE06990844069006A812A90EC901F0E0
:1008C000B3F8002C03DD514606A801F095F8324636
:1008D00059460698FFF748FC06983044069006985B
:1008E000401B039000BF039807B0BDE8F08F7FB5B1
:1008F0000546089E002401A807C800F051F9801C95
:1009000030440444002D00DDA41C204604B070BD1A
:100910002DE9FF5F05460E4617469846DDE90E9A1B
:100920000395002002900190009000245146484613
:1009300000F046F883460190FFF77EFEB04202DDEC
:10094000A01E009038E000208DF80800029820F0EA
:10095000F00080300290029867F3C3000290029882
:1009600020F00600801C02909DF8081003A801F0FA
:100970003DF801990398FFF744FE0399084403905A
:10098000414603A801F038F800240FE004EB4400CE
:100990000AEB800C03A89CE80E0001F045F81098C3
:1009A00010F8241003A801F021F8641C4C45EDDB7D
:1009B0000398401B009000BF009804B0BDE8F09F72
:1009C0002DE9F04105460E46022700240AE004EB1B
:1009D000440006EB800393E8070000F0E1F8C01C38
:1009E0000744641CAC42F2DB3846BDE8F0810000ED
:1009F0002DE9F04196B004460D461646582220498E
:100A00006846FFF7B1FB03943C20ADF818000120C5
:100A10008DF81A00109513966A46C8211948FFF7F9
:100A20001FFE0746394618A000F056FDF9B21548DA
:100A300000F027FD4FF01E0802E0642000F026FFC2
:100A40001A4800781A49097888420BD0174840782C
:100A500017494978884205D0A8F10100C0B2B0F129
:100A60000008EAD14FF480711048FFF796FBB8F107
:100A7000000F03D0002016B0BDE8F0810120FAE796
:100A8000701A0008240000206C656E3D25640D0A74
:100A90004D5154545061636B65745F636F6E6E6546
:100AA0006374446174610D0A00000000EC010020D1
:100AB000681A00082DE9F0438BB005460C4616462F
:100AC0000020089009900A902046FFF783FB87B228
:100AD0004FF0C8080895CDE9054708A807C802AB3C
:100AE00007C3002000903346024641460190074864
:100AF000FFF7A5FE1FFA80F909F0FF01034800F097
:100B0000C0FC00200BB0BDE8F083000024000020F2
:100B10002DE9F04387B004460D460020049005906F
:100B20000690C8274FF0010803958146049403A856
:100B300004A901224346CDE9002102900022394652
:100B40001448FFF7E5FE814609F0FF01114800F067
:100B500098FC1E2602E0642000F098FE0E48007803
:100B60000E490978884209D00B4840780B494978EA
:100B7000884203D0701EC0B2061EECD14FF48071C3
:100B80000548FFF70AFB1EB1002007B0BDE8F0835F
:100B90000120FAE724000020EC0100206C1A000874
:100BA00037B50024009820B10098FFF713FB0446E6
:100BB00000E0019C20463EBD00BFFEE770470000FC
:100BC00070B5002100230F22C47804B3154C2468AB
:100BD00004F4E064C4F5E064210AC1F10403CA40EE
:100BE000447804FA03F184781440214309010E4C3F
:100BF0000678A155047804F01F050124AC4005785F
:100C00006D11AD0005F1E025C5F8004109E004785B
:100C100004F01F050124AC40044D0678761145F818
:100C2000264070BD0CED00E000E400E080E100E053
:100C300002490143024A1160704700000000FA05B2
:100C40000CED00E07047000029B1064AD26902436A
:100C5000044BDA6104E0034AD2698243014BDA6152
:100C6000704700000010024029B1064A9269024311
:100C7000044B9A6104E0034A92698243014B9A61F2
:100C8000704700000010024030B50021002200240F
:100C900000232D4D6D6805F00C0121B1042905D00C
:100CA000082923D105E0294D056022E0274D056084
:100CB0001FE0254D6D6805F47012234D6D6805F435
:100CC0008034022505EB92421CB9214D5543056045
:100CD0000BE01D4D6D6805F400351DB11C4D5543ED
:100CE000056002E0194D5543056002E0174D0560AF
:100CF00000BF00BF144D6D6805F0F0010909154DE6
:100D00006B5C0568DD4045600F4D6D6805F4E06182
:100D1000090A104D6B5C4568DD4085600A4D6D68C1
:100D200005F46051C90A0B4D6B5C4568DD40C56038
:100D3000054D6D6805F44041890B074D6B5CC56836
:100D4000B5FBF3F5056130BD0010024000127A00DA
:100D500000093D00090000201900002010B50CA07A
:100D600000F0AEFB322000F091FD09A000F0A8FBDE
:100D7000322000F08BFD4FF4FA7000F087FD05A0E3
:100D800000F09EFB4FF4487000F080FD10BD0000A5
:100D90002B2B2B0041542B5253540D0A0000000002
:100DA000704710B500F002F810BD00000CB500202F
:100DB000019000903348006840F480303149086069
:100DC00000BF3048006800F4003000900198401CDB
:100DD0000190009818B90198B0F5A06FF1D1294899
:100DE000006800F4003010B10120009001E0002004
:100DF00000900098012843D12348006840F010007B
:100E0000214908600846006820F003000860084691
:100E1000006840F0020008601A48406819494860BC
:100E20000846406848600846406840F48060486072
:100E30000846406820F47C1048600846406840F44A
:100E4000E81048600846006840F08070086000BF05
:100E50000C48006800F000700028F9D0094840688C
:100E600020F00300074948600846406840F002004F
:100E7000486000BF0348406800F00C000828F9D122
:100E80000CBD00000010024000200240704700002E
:100E900010B51348006840F0010011490860084689
:100EA0004068104908400E494860084600680E49ED
:100EB00008400B4908600846006820F4802008605C
:100EC0000846406820F4FE0048604FF41F00886028
:100ED000FFF767FF4FF000600449086010BD000095
:100EE000001002400000FFF8FFFFF6FE08ED00E0F2
:100EF00010B501211B4800F064F801282CD11A48D4
:100F00000078401C18490870084600780A2823DB3E
:100F1000002008700221154800F0B3FA1E20144981
:100F2000087002E0642000F0B1FC12480078124919
:100F3000097888420DD00F4840780F494978884297
:100F400007D00B4801780078401E094A107000292C
:100F5000E8D10AA000F0C0FA0121024800F022F80E
:100F600010BD000000040040080000200400002024
:100F700003000020EC010020060000200D0A53654C
:100F80006E642070696E67207061636B61676520B5
:100F90006973207375636365737366756C210D0ADD
:100FA00000000000CA430282704721B1028842F06B
:100FB0000102028004E002884FF6FE731A400280AC
:100FC000704730B50246002000230024158A05EA48
:100FD0000103958905EA010413B10CB1012000E079
:100FE000002030BD1AB183890B43838102E08389DD
:100FF0008B43838170470000002202881D4B98427A
:101000000ED01D4B98420BD0B0F1804F08D01B4B37
:10101000984205D01A4B984202D01A4B984204D1FC
:101020004FF68F731A404B881A43174B984207D0DC
:10103000164B984204D04FF6FF431A40CB881A4310
:1010400002808B8883850B8803850A4B98420BD0DE
:10105000094B984208D00E4B984205D00D4B984250
:1010600002D00D4B984201D10B7A03860123838273
:1010700070470000002C0140003401400004004093
:1010800000080040000C0040001000400014004028
:101090000040014000440140004801407FB5054642
:1010A0000C4601210220FFF7CFFDADF80850ADF846
:1010B00004400020ADF80A00ADF8060001A90D4873
:1010C000FFF79AFF012211460A48FFF78BFF1D2008
:1010D0008DF8000001208DF8030000208DF801003C
:1010E0008DF802006846FFF76BFD01210148FFF70C
:1010F0005CFF7FBD0004004010B540F225511B4845
:1011000000F060F8E8B11948001D0088184908701F
:10111000084600781749088017480078FF2802DB46
:1011200000201549087012480178134802780078A9
:10113000401C114B1870114881541846007819460C
:10114000087040F22441094800F03CF868B10748B3
:10115000001D008806490870044800880870064889
:101160000078054908700020087010BD0048004054
:10117000000000200438014001000020EC010020A4
:1011800001F40072B2F5007F00D100BFCA430280B3
:10119000704721B1828942F40052828104E0828941
:1011A0004DF6FF731A408281704702460020B1F568
:1011B000007F00D100BF13880B400BB1012000E07D
:1011C0000020704770B5024600240023002500204F
:1011D00040F66A16B14200D100BFC1F3421501F0DA
:1011E0001F03012606FA03F3012D02D1968933402D
:1011F00006E0022D02D1168A334001E0968A334080
:101200000C12012606FA04F41688344013B10CB10E
:10121000012000E0002070BDF0B503460024002648
:101220000025002040F66A17B94200D100BF1846D9
:10123000C1F3421401F01F06012707FA06F5012C3D
:1012400001D10C3004E0022C01D1103000E0143048
:101250001AB107682F43076002E00768AF430760D1
:10126000F0BD00002DE9F04786B005460E4600248B
:10127000A24600BFA1460027B08900B100BF2F469B
:101280002C8A4CF6FF700440F08804432C82AC8911
:101290004EF6F3100440B088318908437189084341
:1012A0000443AC81AC8A4FF6FF400440B08904434C
:1012B000AC8201A8FFF7E8FC1F48874202D1DDF8A5
:1012C00010A001E0DDF80CA0A88900F4004040B1B6
:1012D0000AEBCA0000EB0A1031684900B0FBF1F8D4
:1012E00007E00AEBCA0000EB0A1031688900B0FB86
:1012F000F1F86420B8FBF0F004012009642101FB3F
:101300001089A88900F4004040B1322000EBC900E8
:10131000B0FBF1F000F00700044308E0322000EBDE
:1013200009106421B0FBF1F000F00F0004432C81A0
:1013300006B0BDE8F08700000038014010B586B067
:101340000446012144F20400FFF78EFC18208DF8BA
:1013500017004FF40070ADF8140003208DF816004C
:1013600005A91448FFF7C0F804208DF81700000203
:10137000ADF8140005A90F48FFF7B6F80194002056
:10138000ADF810000C20ADF80E000020ADF80C00F8
:10139000ADF80A00ADF8080001A90748FFF762FFA1
:1013A00001210548FFF7F5FE40210348FFF7E8FE5D
:1013B00006B010BD0008014000380140C1F308022A
:1013C0008280704700BFFEE710B586B00446012159
:1013D0000820FFF749FC01218804FFF735FC4FF492
:1013E0008060ADF8140018208DF8170003208DF8E8
:1013F000160005A91948FFF777F84FF40060ADF81B
:10140000140004208DF8170005A91448FFF76CF8A4
:1014100001940020ADF80800ADF80A00ADF80C000A
:10142000ADF810000C20ADF80E0001A90C48FFF734
:1014300019FF01210A48FFF7ACFE012240F22551B5
:101440000748FFF7E9FE012240F224410448FFF774
:10145000E3FE00F007F806B010BD0000000C0140EC
:101460000048004008B527208DF8000001208DF8C5
:1014700001008DF802008DF803006846FFF7A0FB1D
:1014800008BD70B504460D4603E014F8010B00F0EA
:1014900007F8281EA5F10101CDB2F6D170BD0000FC
:1014A00010B5044621460548FFF788FF00BF4021DC
:1014B0000248FFF77AFE0028F9D010BD004800402E
:1014C00010B5044603E014F8010BFFF7E9FF20789C
:1014D0000028F8D110BD00000FB4054B10B503A9CA
:1014E000044A029800F02CF810BC5DF814FB0000D0
:1014F000C5180008200000200FB4084B10B504A93F
:1015000002AA039800F01CF8044602A9002000F08B
:10151000B8F9204610BC5DF814FB000083180008E1
:1015200002E008C8121F08C1002AFAD170477047AC
:10153000002001E001C1121F002AFBD1704700000A
:101540002DE9FF4F8BB088460546002606E025288A
:101550000BD0DDE90D1290476D1C761C2878002811
:10156000F5D10FB03046BDE8F08F0024A146A24669
:101570000122AE4900E0044315F8013F203B02FA86
:1015800003F00842F7D128782A2810D06FF02F02F4
:101590002878A0F13001092915D809EB890102EB5F
:1015A000410144F0020400EB01096D1CF0E758F81A
:1015B000041B5FEA010903D544F40054C9F1000992
:1015C00044F002046D1C28782E2817D115F8010F5D
:1015D00044F004042A280ED06FF02F022878A0F1DE
:1015E000300109290AD80AEB8A0102EB410100EB1C
:1015F000010A6D1CF2E758F804AB6D1C28786C28C2
:101600000FD006DC4C2817D068280DD06A2814D1DA
:1016100004E0742810D07A280FD10DE044F40014AF
:101620000AE044F4801401E044F4401469788142F3
:1016300002D104F580146D1C6D1C2878692865D0D2
:1016400006DC00288DD0632827D0642806D15DE011
:101650006E2808D073282AD0752877D0DDE90D12BE
:101660009047761CE0E0C4F30250022809D003281A
:101670000DD0D8F8001004280DD00E6008F1040831
:10168000D2E0D8F80010F217C1E90062F6E7D8F806
:1016900000100E80F2E70E70F0E718F8041B8DF8CA
:1016A000001000208DF80100EB46012003E058F8FF
:1016B00004BB4FF0FF3061074FF0000701D40AE090
:1016C0007F1C57450DDA8742FADB1BF8071000290B
:1016D000F6D106E07F1C8742FCDB1BF807100029CF
:1016E000F8D1DDE90D23A9EB07008146214600F082
:1016F000B1F83044C61904E0DDE90D121BF8010B06
:1017000090477F1EF8D22146484688E058F8040BDF
:10171000C4F302514FF00A0B032900D100B204298F
:1017200000D140B2002802DA40422D2102E021051A
:1017300005D52B218DF82410012104E006E0E107F6
:1017400010D02021F6E708AF089113E058F8040BF9
:10175000C4F302514FF00A0B032900D180B20429CF
:1017600000D1C0B20021EEE75946FEF73AFD303114
:1017700007F8011D0028F7D1ADEB070000F1200BA1
:10178000600702D524F4803401E04FF0010ADA4505
:1017900002DDAAEB0B0000E00020824600EB0B010B
:1017A00008980144A9EB01000A90E00306D4DDE9A2
:1017B0000D2321460A9800F04DF806444FF0000929
:1017C00008E009A911F80900DDE90D12904709F1B7
:1017D0000109761C08998945F3DBE0030CD5DDE9A6
:1017E0000D2321460A9800F035F8064404E0DDE9AF
:1017F0000D1230209047761CBAF10001AAF1010ABF
:10180000F5DC05E0DDE90D1217F8010B9047761CB9
:10181000BBF10001ABF1010BF4DC0A982146DDE9D4
:101820000D2300F005F806446D1C97E60928010019
:101830002DE9F041044600251E461746880404D4CD
:1018400005E039462020B0476D1C641EF9D52846B6
:10185000BDE8F0812DE9F041044600251E46904682
:10186000C80301D5302700E02027880404D505E00F
:1018700041463846B0476D1C641EF9D52846BDE880
:10188000F0810A68531C0B6010707047014642F2E9
:1018900028324A434FF0E0235A6101221A610022A4
:1018A0009A6100BF4FF0E022106900F001021AB106
:1018B00000F48032002AF5D000224FF0E0231A61B4
:1018C0009A61704770B504460D46E1B20548FFF7CE
:1018D00075FD00BF80210348FFF767FC0028F9D0A1
:1018E000204670BD003801404FF4A060FFF7A0F91A
:1018F0004FF4E130FFF722FD4FF4E130FFF764FDD4
:1019000041F61F414EF65F20FFF7C8FBFEF738FD9A
:101910000FA211A112A0FFF76BF850B912A0FFF7A8
:10192000DBFD002116A0FFF7F3F810B917A0FFF7B1
:10193000D3FD0CE000221AA11BA0FFF7BBF810B9E1
:101940001BA0FFF7C9FD4FF47A70FFF79FFFF1E787
:101950007075626C6963000061646D696E000000FF
:10196000636C69656E7400004D51545420436F6E72
:101970006E656374206973204F4B210D0A000000CF
:101980002F6D7174742F7465737400004D5154542D
:1019900020537562206973204F4B210D0A0000000F
:1019A0003132333435360000746573740000000042
:1019B0004D51545420507562206973204F4B210DB6
:1019C0000A00000070B504460E463046FEF702FCE1
:1019D00005462946204600F00FF82A463146206881
:1019E000FEF7C2FB20682844206070BD02681170B9
:1019F0000268521C0260704710B50A46CB1701EB13
:101A000013631B0A046823700268521C02600A46B2
:101A1000CB1701EB13631B12A1EB032304682370A4
:101A20000268521C026010BD1FB5044602980028CF
:101A30000DDD20460299FFF7DFFFDDE90221206876
:101A4000FEF792FB20680299084420600AE00198A2
:101A500020B120460199FFF7B5FF03E000212046A1
:101A6000FFF7CAFF1FBD0000200200009003000026
:101A70004D5154430000000004000000000000002D
:101A800000000000000000003C0001004D515457D0
:101A90000000000000000000000000000000000046
:101AA0000000000000000000000000000000000036
:101AB0000000000000000000000000000000000026
:101AC0000000000000000000E81A000800000020EC
:101AD00024000000201500080C1B00082400002032
:101AE000CC0600003015000800000000C000C00057
:101AF00000000000000102030401020304060708BD
:0C1B0000090204060800000000000000BC
:0400000508000131BD
:00000001FF
